{
  "contractName": "Donationcontract",
  "abi": [
    {
      "inputs": [
        {
          "internalType": "string",
          "name": "",
          "type": "string"
        }
      ],
      "name": "donation",
      "outputs": [
        {
          "internalType": "string",
          "name": "donationId",
          "type": "string"
        },
        {
          "internalType": "string",
          "name": "ngoID",
          "type": "string"
        },
        {
          "internalType": "string",
          "name": "userID",
          "type": "string"
        },
        {
          "internalType": "string",
          "name": "publicFridgesID",
          "type": "string"
        },
        {
          "internalType": "string",
          "name": "donationType",
          "type": "string"
        }
      ],
      "stateMutability": "view",
      "type": "function"
    },
    {
      "inputs": [
        {
          "internalType": "uint256",
          "name": "",
          "type": "uint256"
        }
      ],
      "name": "donationKey",
      "outputs": [
        {
          "internalType": "string",
          "name": "",
          "type": "string"
        }
      ],
      "stateMutability": "view",
      "type": "function"
    },
    {
      "inputs": [
        {
          "internalType": "string",
          "name": "",
          "type": "string"
        },
        {
          "internalType": "uint256",
          "name": "",
          "type": "uint256"
        }
      ],
      "name": "ngoDonation",
      "outputs": [
        {
          "internalType": "string",
          "name": "",
          "type": "string"
        }
      ],
      "stateMutability": "view",
      "type": "function"
    },
    {
      "inputs": [
        {
          "internalType": "string",
          "name": "",
          "type": "string"
        },
        {
          "internalType": "uint256",
          "name": "",
          "type": "uint256"
        }
      ],
      "name": "userDonation",
      "outputs": [
        {
          "internalType": "string",
          "name": "",
          "type": "string"
        }
      ],
      "stateMutability": "view",
      "type": "function"
    },
    {
      "inputs": [
        {
          "internalType": "string",
          "name": "donationId",
          "type": "string"
        },
        {
          "internalType": "string",
          "name": "ngoID",
          "type": "string"
        },
        {
          "internalType": "string",
          "name": "userID",
          "type": "string"
        },
        {
          "internalType": "string",
          "name": "publicFridgesID",
          "type": "string"
        },
        {
          "internalType": "string",
          "name": "donationType",
          "type": "string"
        }
      ],
      "name": "addDonation",
      "outputs": [],
      "stateMutability": "nonpayable",
      "type": "function"
    },
    {
      "inputs": [
        {
          "internalType": "string",
          "name": "x",
          "type": "string"
        }
      ],
      "name": "getDonation",
      "outputs": [
        {
          "internalType": "string",
          "name": "donationId",
          "type": "string"
        },
        {
          "internalType": "string",
          "name": "ngoID",
          "type": "string"
        },
        {
          "internalType": "string",
          "name": "userID",
          "type": "string"
        },
        {
          "internalType": "string",
          "name": "publicFridgesID",
          "type": "string"
        },
        {
          "internalType": "string",
          "name": "donationType",
          "type": "string"
        }
      ],
      "stateMutability": "view",
      "type": "function"
    },
    {
      "inputs": [],
      "name": "getDonations",
      "outputs": [
        {
          "components": [
            {
              "internalType": "string",
              "name": "donationId",
              "type": "string"
            },
            {
              "internalType": "string",
              "name": "ngoID",
              "type": "string"
            },
            {
              "internalType": "string",
              "name": "userID",
              "type": "string"
            },
            {
              "internalType": "string",
              "name": "publicFridgesID",
              "type": "string"
            },
            {
              "internalType": "string",
              "name": "donationType",
              "type": "string"
            }
          ],
          "internalType": "struct Donationcontract.Donation[]",
          "name": "",
          "type": "tuple[]"
        }
      ],
      "stateMutability": "view",
      "type": "function"
    },
    {
      "inputs": [
        {
          "internalType": "string",
          "name": "userId",
          "type": "string"
        }
      ],
      "name": "getUserDonations",
      "outputs": [
        {
          "components": [
            {
              "internalType": "string",
              "name": "donationId",
              "type": "string"
            },
            {
              "internalType": "string",
              "name": "ngoID",
              "type": "string"
            },
            {
              "internalType": "string",
              "name": "userID",
              "type": "string"
            },
            {
              "internalType": "string",
              "name": "publicFridgesID",
              "type": "string"
            },
            {
              "internalType": "string",
              "name": "donationType",
              "type": "string"
            }
          ],
          "internalType": "struct Donationcontract.Donation[]",
          "name": "",
          "type": "tuple[]"
        }
      ],
      "stateMutability": "view",
      "type": "function"
    },
    {
      "inputs": [
        {
          "internalType": "string",
          "name": "ngoId",
          "type": "string"
        }
      ],
      "name": "getNgoDonations",
      "outputs": [
        {
          "components": [
            {
              "internalType": "string",
              "name": "donationId",
              "type": "string"
            },
            {
              "internalType": "string",
              "name": "ngoID",
              "type": "string"
            },
            {
              "internalType": "string",
              "name": "userID",
              "type": "string"
            },
            {
              "internalType": "string",
              "name": "publicFridgesID",
              "type": "string"
            },
            {
              "internalType": "string",
              "name": "donationType",
              "type": "string"
            }
          ],
          "internalType": "struct Donationcontract.Donation[]",
          "name": "",
          "type": "tuple[]"
        }
      ],
      "stateMutability": "view",
      "type": "function"
    }
  ],
  "bytecode": "0x6080604052600160045534801561001557600080fd5b5061281a806100256000396000f3fe608060405234801561001057600080fd5b50600436106100935760003560e01c80639ce13bcc116100665780639ce13bcc1461015c578063a216fb101461018c578063e25f8416146101c0578063f1e827f6146101de578063f7b9fc891461020e57610093565b806329b10a2514610098578063383f4d68146100c85780635adce332146100f8578063673e94041461012c575b600080fd5b6100b260048036038101906100ad9190611d4d565b61022a565b6040516100bf9190611e28565b60405180910390f35b6100e260048036038101906100dd9190611e4a565b6102f9565b6040516100ef9190611e28565b60405180910390f35b610112600480360381019061010d9190611ed7565b610399565b604051610123959493929190611f24565b60405180910390f35b61014660048036038101906101419190611ed7565b6106d7565b6040516101539190612138565b60405180910390f35b61017660048036038101906101719190611ed7565b610b97565b6040516101839190612138565b60405180910390f35b6101a660048036038101906101a1919061215a565b611057565b6040516101b7959493929190611f24565b60405180910390f35b6101c861134b565b6040516101d59190612138565b60405180910390f35b6101f860048036038101906101f39190611d4d565b6117b2565b6040516102059190611e28565b60405180910390f35b610228600480360381019061022391906121a3565b611881565b005b600182805160208101820180518482526020830160208501208183528095505050505050818154811061025c57600080fd5b90600052602060002001600091509150508054610278906122ef565b80601f01602080910402602001604051908101604052809291908181526020018280546102a4906122ef565b80156102f15780601f106102c6576101008083540402835291602001916102f1565b820191906000526020600020905b8154815290600101906020018083116102d457829003601f168201915b505050505081565b60036020528060005260406000206000915090508054610318906122ef565b80601f0160208091040260200160405190810160405280929190818152602001828054610344906122ef565b80156103915780601f1061036657610100808354040283529160200191610391565b820191906000526020600020905b81548152906001019060200180831161037457829003601f168201915b505050505081565b606080606080606060008088886040516103b4929190612350565b90815260200160405180910390206040518060a00160405290816000820180546103dd906122ef565b80601f0160208091040260200160405190810160405280929190818152602001828054610409906122ef565b80156104565780601f1061042b57610100808354040283529160200191610456565b820191906000526020600020905b81548152906001019060200180831161043957829003601f168201915b5050505050815260200160018201805461046f906122ef565b80601f016020809104026020016040519081016040528092919081815260200182805461049b906122ef565b80156104e85780601f106104bd576101008083540402835291602001916104e8565b820191906000526020600020905b8154815290600101906020018083116104cb57829003601f168201915b50505050508152602001600282018054610501906122ef565b80601f016020809104026020016040519081016040528092919081815260200182805461052d906122ef565b801561057a5780601f1061054f5761010080835404028352916020019161057a565b820191906000526020600020905b81548152906001019060200180831161055d57829003601f168201915b50505050508152602001600382018054610593906122ef565b80601f01602080910402602001604051908101604052809291908181526020018280546105bf906122ef565b801561060c5780601f106105e15761010080835404028352916020019161060c565b820191906000526020600020905b8154815290600101906020018083116105ef57829003601f168201915b50505050508152602001600482018054610625906122ef565b80601f0160208091040260200160405190810160405280929190818152602001828054610651906122ef565b801561069e5780601f106106735761010080835404028352916020019161069e565b820191906000526020600020905b81548152906001019060200180831161068157829003601f168201915b50505050508152505090508060000151816020015182604001518360600151846080015195509550955095509550509295509295909350565b60606000600184846040516106ed929190612350565b9081526020016040518091039020805480602002602001604051908101604052809291908181526020016000905b828210156107c757838290600052602060002001805461073a906122ef565b80601f0160208091040260200160405190810160405280929190818152602001828054610766906122ef565b80156107b35780601f10610788576101008083540402835291602001916107b3565b820191906000526020600020905b81548152906001019060200180831161079657829003601f168201915b50505050508152602001906001019061071b565b5050505090506000815167ffffffffffffffff8111156107ea576107e9611bec565b5b60405190808252806020026020018201604052801561082357816020015b610810611b8e565b8152602001906001900390816108085790505b50905060005b8251811015610b8b57600083828151811061084757610846612369565b5b602002602001015190506000808260405161086291906123c9565b90815260200160405180910390209050806040518060a001604052908160008201805461088e906122ef565b80601f01602080910402602001604051908101604052809291908181526020018280546108ba906122ef565b80156109075780601f106108dc57610100808354040283529160200191610907565b820191906000526020600020905b8154815290600101906020018083116108ea57829003601f168201915b50505050508152602001600182018054610920906122ef565b80601f016020809104026020016040519081016040528092919081815260200182805461094c906122ef565b80156109995780601f1061096e57610100808354040283529160200191610999565b820191906000526020600020905b81548152906001019060200180831161097c57829003601f168201915b505050505081526020016002820180546109b2906122ef565b80601f01602080910402602001604051908101604052809291908181526020018280546109de906122ef565b8015610a2b5780601f10610a0057610100808354040283529160200191610a2b565b820191906000526020600020905b815481529060010190602001808311610a0e57829003601f168201915b50505050508152602001600382018054610a44906122ef565b80601f0160208091040260200160405190810160405280929190818152602001828054610a70906122ef565b8015610abd5780601f10610a9257610100808354040283529160200191610abd565b820191906000526020600020905b815481529060010190602001808311610aa057829003601f168201915b50505050508152602001600482018054610ad6906122ef565b80601f0160208091040260200160405190810160405280929190818152602001828054610b02906122ef565b8015610b4f5780601f10610b2457610100808354040283529160200191610b4f565b820191906000526020600020905b815481529060010190602001808311610b3257829003601f168201915b505050505081525050848481518110610b6b57610b6a612369565b5b602002602001018190525050508080610b839061240f565b915050610829565b50809250505092915050565b6060600060028484604051610bad929190612350565b9081526020016040518091039020805480602002602001604051908101604052809291908181526020016000905b82821015610c87578382906000526020600020018054610bfa906122ef565b80601f0160208091040260200160405190810160405280929190818152602001828054610c26906122ef565b8015610c735780601f10610c4857610100808354040283529160200191610c73565b820191906000526020600020905b815481529060010190602001808311610c5657829003601f168201915b505050505081526020019060010190610bdb565b5050505090506000815167ffffffffffffffff811115610caa57610ca9611bec565b5b604051908082528060200260200182016040528015610ce357816020015b610cd0611b8e565b815260200190600190039081610cc85790505b50905060005b825181101561104b576000838281518110610d0757610d06612369565b5b6020026020010151905060008082604051610d2291906123c9565b90815260200160405180910390209050806040518060a0016040529081600082018054610d4e906122ef565b80601f0160208091040260200160405190810160405280929190818152602001828054610d7a906122ef565b8015610dc75780601f10610d9c57610100808354040283529160200191610dc7565b820191906000526020600020905b815481529060010190602001808311610daa57829003601f168201915b50505050508152602001600182018054610de0906122ef565b80601f0160208091040260200160405190810160405280929190818152602001828054610e0c906122ef565b8015610e595780601f10610e2e57610100808354040283529160200191610e59565b820191906000526020600020905b815481529060010190602001808311610e3c57829003601f168201915b50505050508152602001600282018054610e72906122ef565b80601f0160208091040260200160405190810160405280929190818152602001828054610e9e906122ef565b8015610eeb5780601f10610ec057610100808354040283529160200191610eeb565b820191906000526020600020905b815481529060010190602001808311610ece57829003601f168201915b50505050508152602001600382018054610f04906122ef565b80601f0160208091040260200160405190810160405280929190818152602001828054610f30906122ef565b8015610f7d5780601f10610f5257610100808354040283529160200191610f7d565b820191906000526020600020905b815481529060010190602001808311610f6057829003601f168201915b50505050508152602001600482018054610f96906122ef565b80601f0160208091040260200160405190810160405280929190818152602001828054610fc2906122ef565b801561100f5780601f10610fe45761010080835404028352916020019161100f565b820191906000526020600020905b815481529060010190602001808311610ff257829003601f168201915b50505050508152505084848151811061102b5761102a612369565b5b6020026020010181905250505080806110439061240f565b915050610ce9565b50809250505092915050565b600081805160208101820180518482526020830160208501208183528095505050505050600091509050806000018054611090906122ef565b80601f01602080910402602001604051908101604052809291908181526020018280546110bc906122ef565b80156111095780601f106110de57610100808354040283529160200191611109565b820191906000526020600020905b8154815290600101906020018083116110ec57829003601f168201915b50505050509080600101805461111e906122ef565b80601f016020809104026020016040519081016040528092919081815260200182805461114a906122ef565b80156111975780601f1061116c57610100808354040283529160200191611197565b820191906000526020600020905b81548152906001019060200180831161117a57829003601f168201915b5050505050908060020180546111ac906122ef565b80601f01602080910402602001604051908101604052809291908181526020018280546111d8906122ef565b80156112255780601f106111fa57610100808354040283529160200191611225565b820191906000526020600020905b81548152906001019060200180831161120857829003601f168201915b50505050509080600301805461123a906122ef565b80601f0160208091040260200160405190810160405280929190818152602001828054611266906122ef565b80156112b35780601f10611288576101008083540402835291602001916112b3565b820191906000526020600020905b81548152906001019060200180831161129657829003601f168201915b5050505050908060040180546112c8906122ef565b80601f01602080910402602001604051908101604052809291908181526020018280546112f4906122ef565b80156113415780601f1061131657610100808354040283529160200191611341565b820191906000526020600020905b81548152906001019060200180831161132457829003601f168201915b5050505050905085565b60606000600160045461135e9190612457565b67ffffffffffffffff81111561137757611376611bec565b5b6040519080825280602002602001820160405280156113b057816020015b61139d611b8e565b8152602001906001900390816113955790505b5090506000600190505b60016004546113c99190612457565b8110156117aa5760006003600083815260200190815260200160002080546113f0906122ef565b80601f016020809104026020016040519081016040528092919081815260200182805461141c906122ef565b80156114695780601f1061143e57610100808354040283529160200191611469565b820191906000526020600020905b81548152906001019060200180831161144c57829003601f168201915b505050505090506000808260405161148191906123c9565b90815260200160405180910390209050806040518060a00160405290816000820180546114ad906122ef565b80601f01602080910402602001604051908101604052809291908181526020018280546114d9906122ef565b80156115265780601f106114fb57610100808354040283529160200191611526565b820191906000526020600020905b81548152906001019060200180831161150957829003601f168201915b5050505050815260200160018201805461153f906122ef565b80601f016020809104026020016040519081016040528092919081815260200182805461156b906122ef565b80156115b85780601f1061158d576101008083540402835291602001916115b8565b820191906000526020600020905b81548152906001019060200180831161159b57829003601f168201915b505050505081526020016002820180546115d1906122ef565b80601f01602080910402602001604051908101604052809291908181526020018280546115fd906122ef565b801561164a5780601f1061161f5761010080835404028352916020019161164a565b820191906000526020600020905b81548152906001019060200180831161162d57829003601f168201915b50505050508152602001600382018054611663906122ef565b80601f016020809104026020016040519081016040528092919081815260200182805461168f906122ef565b80156116dc5780601f106116b1576101008083540402835291602001916116dc565b820191906000526020600020905b8154815290600101906020018083116116bf57829003601f168201915b505050505081526020016004820180546116f5906122ef565b80601f0160208091040260200160405190810160405280929190818152602001828054611721906122ef565b801561176e5780601f106117435761010080835404028352916020019161176e565b820191906000526020600020905b81548152906001019060200180831161175157829003601f168201915b50505050508152505084848151811061178a57611789612369565b5b6020026020010181905250505080806117a29061240f565b9150506113ba565b508091505090565b60028280516020810182018051848252602083016020850120818352809550505050505081815481106117e457600080fd5b90600052602060002001600091509150508054611800906122ef565b80601f016020809104026020016040519081016040528092919081815260200182805461182c906122ef565b80156118795780601f1061184e57610100808354040283529160200191611879565b820191906000526020600020905b81548152906001019060200180831161185c57829003601f168201915b505050505081565b6040518060a001604052808b8b8080601f016020809104026020016040519081016040528093929190818152602001838380828437600081840152601f19601f82011690508083019250505050505050815260200189898080601f016020809104026020016040519081016040528093929190818152602001838380828437600081840152601f19601f82011690508083019250505050505050815260200187878080601f016020809104026020016040519081016040528093929190818152602001838380828437600081840152601f19601f82011690508083019250505050505050815260200185858080601f016020809104026020016040519081016040528093929190818152602001838380828437600081840152601f19601f82011690508083019250505050505050815260200183838080601f016020809104026020016040519081016040528093929190818152602001838380828437600081840152601f19601f8201169050808301925050505050505081525060008b8b604051611a0e929190612350565b90815260200160405180910390206000820151816000019081611a319190612637565b506020820151816001019081611a479190612637565b506040820151816002019081611a5d9190612637565b506060820151816003019081611a739190612637565b506080820151816004019081611a899190612637565b5090505089896003600060045481526020019081526020016000209182611ab1929190612714565b5060018686604051611ac4929190612350565b90815260200160405180910390208a8a90918060018154018082558091505060019003906000526020600020016000909192909192909192909192509182611b0d929190612714565b5060028888604051611b20929190612350565b90815260200160405180910390208a8a90918060018154018082558091505060019003906000526020600020016000909192909192909192909192509182611b69929190612714565b5060046000815480929190611b7d9061240f565b919050555050505050505050505050565b6040518060a0016040528060608152602001606081526020016060815260200160608152602001606081525090565b6000604051905090565b600080fd5b600080fd5b600080fd5b600080fd5b6000601f19601f8301169050919050565b7f4e487b7100000000000000000000000000000000000000000000000000000000600052604160045260246000fd5b611c2482611bdb565b810181811067ffffffffffffffff82111715611c4357611c42611bec565b5b80604052505050565b6000611c56611bbd565b9050611c628282611c1b565b919050565b600067ffffffffffffffff821115611c8257611c81611bec565b5b611c8b82611bdb565b9050602081019050919050565b82818337600083830152505050565b6000611cba611cb584611c67565b611c4c565b905082815260208101848484011115611cd657611cd5611bd6565b5b611ce1848285611c98565b509392505050565b600082601f830112611cfe57611cfd611bd1565b5b8135611d0e848260208601611ca7565b91505092915050565b6000819050919050565b611d2a81611d17565b8114611d3557600080fd5b50565b600081359050611d4781611d21565b92915050565b60008060408385031215611d6457611d63611bc7565b5b600083013567ffffffffffffffff811115611d8257611d81611bcc565b5b611d8e85828601611ce9565b9250506020611d9f85828601611d38565b9150509250929050565b600081519050919050565b600082825260208201905092915050565b60005b83811015611de3578082015181840152602081019050611dc8565b60008484015250505050565b6000611dfa82611da9565b611e048185611db4565b9350611e14818560208601611dc5565b611e1d81611bdb565b840191505092915050565b60006020820190508181036000830152611e428184611def565b905092915050565b600060208284031215611e6057611e5f611bc7565b5b6000611e6e84828501611d38565b91505092915050565b600080fd5b600080fd5b60008083601f840112611e9757611e96611bd1565b5b8235905067ffffffffffffffff811115611eb457611eb3611e77565b5b602083019150836001820283011115611ed057611ecf611e7c565b5b9250929050565b60008060208385031215611eee57611eed611bc7565b5b600083013567ffffffffffffffff811115611f0c57611f0b611bcc565b5b611f1885828601611e81565b92509250509250929050565b600060a0820190508181036000830152611f3e8188611def565b90508181036020830152611f528187611def565b90508181036040830152611f668186611def565b90508181036060830152611f7a8185611def565b90508181036080830152611f8e8184611def565b90509695505050505050565b600081519050919050565b600082825260208201905092915050565b6000819050602082019050919050565b600082825260208201905092915050565b6000611fe282611da9565b611fec8185611fc6565b9350611ffc818560208601611dc5565b61200581611bdb565b840191505092915050565b600060a083016000830151848203600086015261202d8282611fd7565b915050602083015184820360208601526120478282611fd7565b915050604083015184820360408601526120618282611fd7565b9150506060830151848203606086015261207b8282611fd7565b915050608083015184820360808601526120958282611fd7565b9150508091505092915050565b60006120ae8383612010565b905092915050565b6000602082019050919050565b60006120ce82611f9a565b6120d88185611fa5565b9350836020820285016120ea85611fb6565b8060005b85811015612126578484038952815161210785826120a2565b9450612112836120b6565b925060208a019950506001810190506120ee565b50829750879550505050505092915050565b6000602082019050818103600083015261215281846120c3565b905092915050565b6000602082840312156121705761216f611bc7565b5b600082013567ffffffffffffffff81111561218e5761218d611bcc565b5b61219a84828501611ce9565b91505092915050565b60008060008060008060008060008060a08b8d0312156121c6576121c5611bc7565b5b60008b013567ffffffffffffffff8111156121e4576121e3611bcc565b5b6121f08d828e01611e81565b9a509a505060208b013567ffffffffffffffff81111561221357612212611bcc565b5b61221f8d828e01611e81565b985098505060408b013567ffffffffffffffff81111561224257612241611bcc565b5b61224e8d828e01611e81565b965096505060608b013567ffffffffffffffff81111561227157612270611bcc565b5b61227d8d828e01611e81565b945094505060808b013567ffffffffffffffff8111156122a05761229f611bcc565b5b6122ac8d828e01611e81565b92509250509295989b9194979a5092959850565b7f4e487b7100000000000000000000000000000000000000000000000000000000600052602260045260246000fd5b6000600282049050600182168061230757607f821691505b60208210810361231a576123196122c0565b5b50919050565b600081905092915050565b60006123378385612320565b9350612344838584611c98565b82840190509392505050565b600061235d82848661232b565b91508190509392505050565b7f4e487b7100000000000000000000000000000000000000000000000000000000600052603260045260246000fd5b60006123a382611da9565b6123ad8185612320565b93506123bd818560208601611dc5565b80840191505092915050565b60006123d58284612398565b915081905092915050565b7f4e487b7100000000000000000000000000000000000000000000000000000000600052601160045260246000fd5b600061241a82611d17565b91507fffffffffffffffffffffffffffffffffffffffffffffffffffffffffffffffff820361244c5761244b6123e0565b5b600182019050919050565b600061246282611d17565b915061246d83611d17565b9250828203905081811115612485576124846123e0565b5b92915050565b60008190508160005260206000209050919050565b60006020601f8301049050919050565b600082821b905092915050565b6000600883026124ed7fffffffffffffffffffffffffffffffffffffffffffffffffffffffffffffffff826124b0565b6124f786836124b0565b95508019841693508086168417925050509392505050565b6000819050919050565b600061253461252f61252a84611d17565b61250f565b611d17565b9050919050565b6000819050919050565b61254e83612519565b61256261255a8261253b565b8484546124bd565b825550505050565b600090565b61257761256a565b612582818484612545565b505050565b5b818110156125a65761259b60008261256f565b600181019050612588565b5050565b601f8211156125eb576125bc8161248b565b6125c5846124a0565b810160208510156125d4578190505b6125e86125e0856124a0565b830182612587565b50505b505050565b600082821c905092915050565b600061260e600019846008026125f0565b1980831691505092915050565b600061262783836125fd565b9150826002028217905092915050565b61264082611da9565b67ffffffffffffffff81111561265957612658611bec565b5b61266382546122ef565b61266e8282856125aa565b600060209050601f8311600181146126a1576000841561268f578287015190505b612699858261261b565b865550612701565b601f1984166126af8661248b565b60005b828110156126d7578489015182556001820191506020850194506020810190506126b2565b868310156126f457848901516126f0601f8916826125fd565b8355505b6001600288020188555050505b505050505050565b600082905092915050565b61271e8383612709565b67ffffffffffffffff81111561273757612736611bec565b5b61274182546122ef565b61274c8282856125aa565b6000601f83116001811461277b5760008415612769578287013590505b612773858261261b565b8655506127db565b601f1984166127898661248b565b60005b828110156127b15784890135825560018201915060208501945060208101905061278c565b868310156127ce57848901356127ca601f8916826125fd565b8355505b6001600288020188555050505b5050505050505056fea26469706673582212200fb4e73fd3747b237b59ee10551924e9686f5a27a0479db05c02fb30d46a2fe564736f6c63430008100033",
  "immutableReferences": {},
  "source": "pragma solidity ^0.8.16;\r\npragma experimental ABIEncoderV2;\r\n\r\ncontract Donationcontract{\r\n    \r\n    struct Donation{\r\n        string donationId;\r\n        string ngoID;\r\n        string userID;\r\n        string publicFridgesID;\r\n        string donationType;\r\n    }\r\n\r\n    mapping(string => Donation) public donation;\r\n    mapping(string => string[]) public userDonation;\r\n    mapping(string => string[]) public ngoDonation;\r\n    mapping(uint => string) public donationKey;\r\n    uint totaldonation = 1;\r\n\r\n\r\n\r\n    function addDonation(\r\n        string calldata donationId,\r\n        string calldata  ngoID,\r\n        string calldata  userID,\r\n        string calldata  publicFridgesID,\r\n        string calldata  donationType\r\n    ) external{\r\n        donation[donationId] = Donation(donationId, ngoID, userID, publicFridgesID, donationType);\r\n        donationKey[totaldonation] = donationId;\r\n        userDonation[userID].push(donationId);\r\n        ngoDonation[ngoID].push(donationId);\r\n        totaldonation++;\r\n    }\r\n\r\n    function getDonation(string calldata x) view external returns(\r\n        string memory donationId,\r\n        string memory  ngoID,\r\n        string memory  userID,\r\n        string memory  publicFridgesID,\r\n        string memory  donationType\r\n    ){\r\n            Donation memory temp = donation[x];\r\n            return(temp.donationId, temp.ngoID, temp.userID, temp.publicFridgesID, temp.donationType);\r\n    }\r\n\r\n   function getDonations() external view returns (Donation[] memory){\r\n      Donation[]  memory _donation = new Donation[](totaldonation-1);\r\n      for (uint i=1;i<totaldonation-1;i++) {\r\n          string memory x = donationKey[i];\r\n          Donation storage member = donation[x];\r\n          _donation[i] = member;\r\n      }\r\n      return _donation;\r\n    }\r\n\r\n    function getUserDonations(string calldata userId) external view returns(Donation[] memory){\r\n        string[] memory userDonationId = userDonation[userId];\r\n        Donation[]  memory _donation = new Donation[](userDonationId.length);\r\n        for (uint i=0;i<userDonationId.length;i++) {\r\n            string memory x = userDonationId[i];\r\n            Donation storage member = donation[x];\r\n            _donation[i] = member;\r\n        }\r\n        return _donation;\r\n    }\r\n\r\n    function getNgoDonations(string calldata ngoId) external view returns(Donation[] memory){\r\n        string[] memory ngoDonationId = ngoDonation[ngoId];\r\n        Donation[]  memory _donation = new Donation[](ngoDonationId.length);\r\n        for (uint i=0;i<ngoDonationId.length;i++) {\r\n            string memory x = ngoDonationId[i];\r\n            Donation storage member = donation[x];\r\n            _donation[i] = member;\r\n        }\r\n        return _donation;\r\n    }\r\n\r\n\r\n}",
  "sourcePath": "D:\\minor final project\\server\\contracts\\contracts_classified\\donation.sol",
  "compiler": {
    "name": "solc",
    "version": "0.8.16+commit.07a7930e.Emscripten.clang"
  },
  "schemaVersion": "3.4.10",
  "updatedAt": "2022-11-05T04:16:19.286Z",
  "devdoc": {
    "kind": "dev",
    "methods": {},
    "version": 1
  },
  "userdoc": {
    "kind": "user",
    "methods": {},
    "version": 1
  }
}