{
  "contractName": "FoodDonation",
  "abi": [
    {
      "inputs": [
        {
          "internalType": "uint256",
          "name": "",
          "type": "uint256"
        }
      ],
      "name": "driveFridgeDonation",
      "outputs": [
        {
          "internalType": "string",
          "name": "ngoId",
          "type": "string"
        },
        {
          "internalType": "string",
          "name": "userId",
          "type": "string"
        },
        {
          "internalType": "string",
          "name": "driveId",
          "type": "string"
        }
      ],
      "stateMutability": "view",
      "type": "function",
      "constant": true
    },
    {
      "inputs": [
        {
          "internalType": "uint256",
          "name": "",
          "type": "uint256"
        }
      ],
      "name": "ngo",
      "outputs": [
        {
          "internalType": "string",
          "name": "name",
          "type": "string"
        },
        {
          "internalType": "string",
          "name": "email",
          "type": "string"
        },
        {
          "internalType": "uint256",
          "name": "phoneno",
          "type": "uint256"
        },
        {
          "internalType": "string",
          "name": "ngoAddress",
          "type": "string"
        },
        {
          "internalType": "string",
          "name": "uniqueId",
          "type": "string"
        }
      ],
      "stateMutability": "view",
      "type": "function",
      "constant": true
    },
    {
      "inputs": [
        {
          "internalType": "uint256",
          "name": "",
          "type": "uint256"
        }
      ],
      "name": "ngoDrives",
      "outputs": [
        {
          "internalType": "string",
          "name": "driveName",
          "type": "string"
        },
        {
          "internalType": "string",
          "name": "ngoId",
          "type": "string"
        },
        {
          "internalType": "string",
          "name": "fridgeType",
          "type": "string"
        },
        {
          "internalType": "string",
          "name": "driveAddress",
          "type": "string"
        }
      ],
      "stateMutability": "view",
      "type": "function",
      "constant": true
    },
    {
      "inputs": [
        {
          "internalType": "uint256",
          "name": "",
          "type": "uint256"
        }
      ],
      "name": "publicFridgeDonation",
      "outputs": [
        {
          "internalType": "string",
          "name": "ngoId",
          "type": "string"
        },
        {
          "internalType": "string",
          "name": "userId",
          "type": "string"
        },
        {
          "internalType": "string",
          "name": "publicFridgesId",
          "type": "string"
        },
        {
          "internalType": "string",
          "name": "status",
          "type": "string"
        }
      ],
      "stateMutability": "view",
      "type": "function",
      "constant": true
    },
    {
      "inputs": [
        {
          "internalType": "uint256",
          "name": "",
          "type": "uint256"
        }
      ],
      "name": "publicFridges",
      "outputs": [
        {
          "internalType": "string",
          "name": "ngoID",
          "type": "string"
        },
        {
          "internalType": "string",
          "name": "totalSlots",
          "type": "string"
        },
        {
          "internalType": "string",
          "name": "fridgeType",
          "type": "string"
        },
        {
          "internalType": "string",
          "name": "fridgeAddress",
          "type": "string"
        }
      ],
      "stateMutability": "view",
      "type": "function",
      "constant": true
    },
    {
      "inputs": [
        {
          "internalType": "uint256",
          "name": "",
          "type": "uint256"
        }
      ],
      "name": "user",
      "outputs": [
        {
          "internalType": "string",
          "name": "name",
          "type": "string"
        },
        {
          "internalType": "string",
          "name": "email",
          "type": "string"
        },
        {
          "internalType": "uint256",
          "name": "phoneno",
          "type": "uint256"
        }
      ],
      "stateMutability": "view",
      "type": "function",
      "constant": true
    },
    {
      "inputs": [
        {
          "internalType": "string",
          "name": "name",
          "type": "string"
        },
        {
          "internalType": "string",
          "name": "email",
          "type": "string"
        },
        {
          "internalType": "uint256",
          "name": "phoneno",
          "type": "uint256"
        }
      ],
      "name": "addUser",
      "outputs": [],
      "stateMutability": "nonpayable",
      "type": "function"
    },
    {
      "inputs": [
        {
          "internalType": "string",
          "name": "name",
          "type": "string"
        },
        {
          "internalType": "string",
          "name": "email",
          "type": "string"
        },
        {
          "internalType": "uint256",
          "name": "phoneno",
          "type": "uint256"
        },
        {
          "internalType": "string",
          "name": "ngoAddress",
          "type": "string"
        },
        {
          "internalType": "string",
          "name": "uniqueId",
          "type": "string"
        }
      ],
      "name": "addNgo",
      "outputs": [],
      "stateMutability": "nonpayable",
      "type": "function"
    },
    {
      "inputs": [
        {
          "internalType": "string",
          "name": "driveName",
          "type": "string"
        },
        {
          "internalType": "string",
          "name": "ngoId",
          "type": "string"
        },
        {
          "internalType": "string",
          "name": "fridgeType",
          "type": "string"
        },
        {
          "internalType": "string",
          "name": "driveAddress",
          "type": "string"
        }
      ],
      "name": "addNgoDrives",
      "outputs": [],
      "stateMutability": "nonpayable",
      "type": "function"
    },
    {
      "inputs": [
        {
          "internalType": "string",
          "name": "ngoID",
          "type": "string"
        },
        {
          "internalType": "string",
          "name": "totalSlots",
          "type": "string"
        },
        {
          "internalType": "string",
          "name": "fridgeType",
          "type": "string"
        },
        {
          "internalType": "string",
          "name": "fridgeAddress",
          "type": "string"
        }
      ],
      "name": "addPublicFridges",
      "outputs": [],
      "stateMutability": "nonpayable",
      "type": "function"
    },
    {
      "inputs": [
        {
          "internalType": "string",
          "name": "ngoId",
          "type": "string"
        },
        {
          "internalType": "string",
          "name": "userId",
          "type": "string"
        },
        {
          "internalType": "string",
          "name": "publicFridgesId",
          "type": "string"
        },
        {
          "internalType": "string",
          "name": "status",
          "type": "string"
        }
      ],
      "name": "addPublicFridgeDonations",
      "outputs": [],
      "stateMutability": "nonpayable",
      "type": "function"
    },
    {
      "inputs": [
        {
          "internalType": "string",
          "name": "ngoId",
          "type": "string"
        },
        {
          "internalType": "string",
          "name": "userId",
          "type": "string"
        },
        {
          "internalType": "string",
          "name": "driveId",
          "type": "string"
        }
      ],
      "name": "addDriveFridgeDonation",
      "outputs": [],
      "stateMutability": "nonpayable",
      "type": "function"
    }
  ],
  "bytecode": "0x60806040526103e96006556103e96007556103e96008556103e96009556103e9600a556103e9600b5534801561003457600080fd5b5061221b806100446000396000f3fe608060405234801561001057600080fd5b50600436106100b45760003560e01c8063aa0ded6611610071578063aa0ded66146101a5578063bb4eca99146101c1578063bba33d3e146101dd578063c0aa994b1461020f578063ef9ceb7d14610242578063f32cdb891461025e576100b4565b8063091d935e146100b957806318e026f0146100ec578063238c943d14610108578063553275be146101245780636dfefb3814610156578063964f593714610189575b600080fd5b6100d360048036038101906100ce91906118a1565b610292565b6040516100e3949392919061195e565b60405180910390f35b61010660048036038101906101019190611a24565b6104e2565b005b610122600480360381019061011d9190611a24565b6106a5565b005b61013e600480360381019061013991906118a1565b610868565b60405161014d93929190611b1c565b60405180910390f35b610170600480360381019061016b91906118a1565b6109a2565b604051610180949392919061195e565b60405180910390f35b6101a3600480360381019061019e9190611b61565b610bf2565b005b6101bf60048036038101906101ba9190611bf6565b610d01565b005b6101db60048036038101906101d69190611cf2565b610ed5565b005b6101f760048036038101906101f291906118a1565b611036565b60405161020693929190611da6565b60405180910390f35b610229600480360381019061022491906118a1565b6111f8565b604051610239949392919061195e565b60405180910390f35b61025c60048036038101906102579190611a24565b611448565b005b610278600480360381019061027391906118a1565b61160b565b604051610289959493929190611df2565b60405180910390f35b60036020528060005260406000206000915090508060000180546102b590611e90565b80601f01602080910402602001604051908101604052809291908181526020018280546102e190611e90565b801561032e5780601f106103035761010080835404028352916020019161032e565b820191906000526020600020905b81548152906001019060200180831161031157829003601f168201915b50505050509080600101805461034390611e90565b80601f016020809104026020016040519081016040528092919081815260200182805461036f90611e90565b80156103bc5780601f10610391576101008083540402835291602001916103bc565b820191906000526020600020905b81548152906001019060200180831161039f57829003601f168201915b5050505050908060020180546103d190611e90565b80601f01602080910402602001604051908101604052809291908181526020018280546103fd90611e90565b801561044a5780601f1061041f5761010080835404028352916020019161044a565b820191906000526020600020905b81548152906001019060200180831161042d57829003601f168201915b50505050509080600301805461045f90611e90565b80601f016020809104026020016040519081016040528092919081815260200182805461048b90611e90565b80156104d85780601f106104ad576101008083540402835291602001916104d8565b820191906000526020600020905b8154815290600101906020018083116104bb57829003601f168201915b5050505050905084565b604051806080016040528089898080601f016020809104026020016040519081016040528093929190818152602001838380828437600081840152601f19601f82011690508083019250505050505050815260200187878080601f016020809104026020016040519081016040528093929190818152602001838380828437600081840152601f19601f82011690508083019250505050505050815260200185858080601f016020809104026020016040519081016040528093929190818152602001838380828437600081840152601f19601f82011690508083019250505050505050815260200183838080601f016020809104026020016040519081016040528093929190818152602001838380828437600081840152601f19601f8201169050808301925050505050505081525060046000600a548152602001908152602001600020600082015181600001908161063d919061209c565b506020820151816001019081610653919061209c565b506040820151816002019081610669919061209c565b50606082015181600301908161067f919061209c565b50905050600a60008154809291906106969061219d565b91905055505050505050505050565b604051806080016040528089898080601f016020809104026020016040519081016040528093929190818152602001838380828437600081840152601f19601f82011690508083019250505050505050815260200187878080601f016020809104026020016040519081016040528093929190818152602001838380828437600081840152601f19601f82011690508083019250505050505050815260200185858080601f016020809104026020016040519081016040528093929190818152602001838380828437600081840152601f19601f82011690508083019250505050505050815260200183838080601f016020809104026020016040519081016040528093929190818152602001838380828437600081840152601f19601f820116905080830192505050505050508152506002600060085481526020019081526020016000206000820151816000019081610800919061209c565b506020820151816001019081610816919061209c565b50604082015181600201908161082c919061209c565b506060820151816003019081610842919061209c565b50905050600860008154809291906108599061219d565b91905055505050505050505050565b600060205280600052604060002060009150905080600001805461088b90611e90565b80601f01602080910402602001604051908101604052809291908181526020018280546108b790611e90565b80156109045780601f106108d957610100808354040283529160200191610904565b820191906000526020600020905b8154815290600101906020018083116108e757829003601f168201915b50505050509080600101805461091990611e90565b80601f016020809104026020016040519081016040528092919081815260200182805461094590611e90565b80156109925780601f1061096757610100808354040283529160200191610992565b820191906000526020600020905b81548152906001019060200180831161097557829003601f168201915b5050505050908060020154905083565b60046020528060005260406000206000915090508060000180546109c590611e90565b80601f01602080910402602001604051908101604052809291908181526020018280546109f190611e90565b8015610a3e5780601f10610a1357610100808354040283529160200191610a3e565b820191906000526020600020905b815481529060010190602001808311610a2157829003601f168201915b505050505090806001018054610a5390611e90565b80601f0160208091040260200160405190810160405280929190818152602001828054610a7f90611e90565b8015610acc5780601f10610aa157610100808354040283529160200191610acc565b820191906000526020600020905b815481529060010190602001808311610aaf57829003601f168201915b505050505090806002018054610ae190611e90565b80601f0160208091040260200160405190810160405280929190818152602001828054610b0d90611e90565b8015610b5a5780601f10610b2f57610100808354040283529160200191610b5a565b820191906000526020600020905b815481529060010190602001808311610b3d57829003601f168201915b505050505090806003018054610b6f90611e90565b80601f0160208091040260200160405190810160405280929190818152602001828054610b9b90611e90565b8015610be85780601f10610bbd57610100808354040283529160200191610be8565b820191906000526020600020905b815481529060010190602001808311610bcb57829003601f168201915b5050505050905084565b604051806060016040528086868080601f016020809104026020016040519081016040528093929190818152602001838380828437600081840152601f19601f82011690508083019250505050505050815260200184848080601f016020809104026020016040519081016040528093929190818152602001838380828437600081840152601f19601f8201169050808301925050505050505081526020018281525060008060075481526020019081526020016000206000820151816000019081610cbe919061209c565b506020820151816001019081610cd4919061209c565b506040820151816002015590505060076000815480929190610cf59061219d565b91905055505050505050565b6040518060a001604052808a8a8080601f016020809104026020016040519081016040528093929190818152602001838380828437600081840152601f19601f82011690508083019250505050505050815260200188888080601f016020809104026020016040519081016040528093929190818152602001838380828437600081840152601f19601f82011690508083019250505050505050815260200186815260200185858080601f016020809104026020016040519081016040528093929190818152602001838380828437600081840152601f19601f82011690508083019250505050505050815260200183838080601f016020809104026020016040519081016040528093929190818152602001838380828437600081840152601f19601f820116905080830192505050505050508152506001600060065481526020019081526020016000206000820151816000019081610e62919061209c565b506020820151816001019081610e78919061209c565b50604082015181600201556060820151816003019081610e98919061209c565b506080820151816004019081610eae919061209c565b5090505060066000815480929190610ec59061219d565b9190505550505050505050505050565b604051806060016040528087878080601f016020809104026020016040519081016040528093929190818152602001838380828437600081840152601f19601f82011690508083019250505050505050815260200185858080601f016020809104026020016040519081016040528093929190818152602001838380828437600081840152601f19601f82011690508083019250505050505050815260200183838080601f016020809104026020016040519081016040528093929190818152602001838380828437600081840152601f19601f8201169050808301925050505050505081525060056000600b5481526020019081526020016000206000820151816000019081610fe6919061209c565b506020820151816001019081610ffc919061209c565b506040820151816002019081611012919061209c565b50905050600b60008154809291906110299061219d565b9190505550505050505050565b600560205280600052604060002060009150905080600001805461105990611e90565b80601f016020809104026020016040519081016040528092919081815260200182805461108590611e90565b80156110d25780601f106110a7576101008083540402835291602001916110d2565b820191906000526020600020905b8154815290600101906020018083116110b557829003601f168201915b5050505050908060010180546110e790611e90565b80601f016020809104026020016040519081016040528092919081815260200182805461111390611e90565b80156111605780601f1061113557610100808354040283529160200191611160565b820191906000526020600020905b81548152906001019060200180831161114357829003601f168201915b50505050509080600201805461117590611e90565b80601f01602080910402602001604051908101604052809291908181526020018280546111a190611e90565b80156111ee5780601f106111c3576101008083540402835291602001916111ee565b820191906000526020600020905b8154815290600101906020018083116111d157829003601f168201915b5050505050905083565b600260205280600052604060002060009150905080600001805461121b90611e90565b80601f016020809104026020016040519081016040528092919081815260200182805461124790611e90565b80156112945780601f1061126957610100808354040283529160200191611294565b820191906000526020600020905b81548152906001019060200180831161127757829003601f168201915b5050505050908060010180546112a990611e90565b80601f01602080910402602001604051908101604052809291908181526020018280546112d590611e90565b80156113225780601f106112f757610100808354040283529160200191611322565b820191906000526020600020905b81548152906001019060200180831161130557829003601f168201915b50505050509080600201805461133790611e90565b80601f016020809104026020016040519081016040528092919081815260200182805461136390611e90565b80156113b05780601f10611385576101008083540402835291602001916113b0565b820191906000526020600020905b81548152906001019060200180831161139357829003601f168201915b5050505050908060030180546113c590611e90565b80601f01602080910402602001604051908101604052809291908181526020018280546113f190611e90565b801561143e5780601f106114135761010080835404028352916020019161143e565b820191906000526020600020905b81548152906001019060200180831161142157829003601f168201915b5050505050905084565b604051806080016040528089898080601f016020809104026020016040519081016040528093929190818152602001838380828437600081840152601f19601f82011690508083019250505050505050815260200187878080601f016020809104026020016040519081016040528093929190818152602001838380828437600081840152601f19601f82011690508083019250505050505050815260200185858080601f016020809104026020016040519081016040528093929190818152602001838380828437600081840152601f19601f82011690508083019250505050505050815260200183838080601f016020809104026020016040519081016040528093929190818152602001838380828437600081840152601f19601f8201169050808301925050505050505081525060036000600954815260200190815260200160002060008201518160000190816115a3919061209c565b5060208201518160010190816115b9919061209c565b5060408201518160020190816115cf919061209c565b5060608201518160030190816115e5919061209c565b50905050600960008154809291906115fc9061219d565b91905055505050505050505050565b600160205280600052604060002060009150905080600001805461162e90611e90565b80601f016020809104026020016040519081016040528092919081815260200182805461165a90611e90565b80156116a75780601f1061167c576101008083540402835291602001916116a7565b820191906000526020600020905b81548152906001019060200180831161168a57829003601f168201915b5050505050908060010180546116bc90611e90565b80601f01602080910402602001604051908101604052809291908181526020018280546116e890611e90565b80156117355780601f1061170a57610100808354040283529160200191611735565b820191906000526020600020905b81548152906001019060200180831161171857829003601f168201915b50505050509080600201549080600301805461175090611e90565b80601f016020809104026020016040519081016040528092919081815260200182805461177c90611e90565b80156117c95780601f1061179e576101008083540402835291602001916117c9565b820191906000526020600020905b8154815290600101906020018083116117ac57829003601f168201915b5050505050908060040180546117de90611e90565b80601f016020809104026020016040519081016040528092919081815260200182805461180a90611e90565b80156118575780601f1061182c57610100808354040283529160200191611857565b820191906000526020600020905b81548152906001019060200180831161183a57829003601f168201915b5050505050905085565b600080fd5b600080fd5b6000819050919050565b61187e8161186b565b811461188957600080fd5b50565b60008135905061189b81611875565b92915050565b6000602082840312156118b7576118b6611861565b5b60006118c58482850161188c565b91505092915050565b600081519050919050565b600082825260208201905092915050565b60005b838110156119085780820151818401526020810190506118ed565b60008484015250505050565b6000601f19601f8301169050919050565b6000611930826118ce565b61193a81856118d9565b935061194a8185602086016118ea565b61195381611914565b840191505092915050565b600060808201905081810360008301526119788187611925565b9050818103602083015261198c8186611925565b905081810360408301526119a08185611925565b905081810360608301526119b48184611925565b905095945050505050565b600080fd5b600080fd5b600080fd5b60008083601f8401126119e4576119e36119bf565b5b8235905067ffffffffffffffff811115611a0157611a006119c4565b5b602083019150836001820283011115611a1d57611a1c6119c9565b5b9250929050565b6000806000806000806000806080898b031215611a4457611a43611861565b5b600089013567ffffffffffffffff811115611a6257611a61611866565b5b611a6e8b828c016119ce565b9850985050602089013567ffffffffffffffff811115611a9157611a90611866565b5b611a9d8b828c016119ce565b9650965050604089013567ffffffffffffffff811115611ac057611abf611866565b5b611acc8b828c016119ce565b9450945050606089013567ffffffffffffffff811115611aef57611aee611866565b5b611afb8b828c016119ce565b92509250509295985092959890939650565b611b168161186b565b82525050565b60006060820190508181036000830152611b368186611925565b90508181036020830152611b4a8185611925565b9050611b596040830184611b0d565b949350505050565b600080600080600060608688031215611b7d57611b7c611861565b5b600086013567ffffffffffffffff811115611b9b57611b9a611866565b5b611ba7888289016119ce565b9550955050602086013567ffffffffffffffff811115611bca57611bc9611866565b5b611bd6888289016119ce565b93509350506040611be98882890161188c565b9150509295509295909350565b600080600080600080600080600060a08a8c031215611c1857611c17611861565b5b60008a013567ffffffffffffffff811115611c3657611c35611866565b5b611c428c828d016119ce565b995099505060208a013567ffffffffffffffff811115611c6557611c64611866565b5b611c718c828d016119ce565b97509750506040611c848c828d0161188c565b95505060608a013567ffffffffffffffff811115611ca557611ca4611866565b5b611cb18c828d016119ce565b945094505060808a013567ffffffffffffffff811115611cd457611cd3611866565b5b611ce08c828d016119ce565b92509250509295985092959850929598565b60008060008060008060608789031215611d0f57611d0e611861565b5b600087013567ffffffffffffffff811115611d2d57611d2c611866565b5b611d3989828a016119ce565b9650965050602087013567ffffffffffffffff811115611d5c57611d5b611866565b5b611d6889828a016119ce565b9450945050604087013567ffffffffffffffff811115611d8b57611d8a611866565b5b611d9789828a016119ce565b92509250509295509295509295565b60006060820190508181036000830152611dc08186611925565b90508181036020830152611dd48185611925565b90508181036040830152611de88184611925565b9050949350505050565b600060a0820190508181036000830152611e0c8188611925565b90508181036020830152611e208187611925565b9050611e2f6040830186611b0d565b8181036060830152611e418185611925565b90508181036080830152611e558184611925565b90509695505050505050565b7f4e487b7100000000000000000000000000000000000000000000000000000000600052602260045260246000fd5b60006002820490506001821680611ea857607f821691505b602082108103611ebb57611eba611e61565b5b50919050565b7f4e487b7100000000000000000000000000000000000000000000000000000000600052604160045260246000fd5b60008190508160005260206000209050919050565b60006020601f8301049050919050565b600082821b905092915050565b600060088302611f527fffffffffffffffffffffffffffffffffffffffffffffffffffffffffffffffff82611f15565b611f5c8683611f15565b95508019841693508086168417925050509392505050565b6000819050919050565b6000611f99611f94611f8f8461186b565b611f74565b61186b565b9050919050565b6000819050919050565b611fb383611f7e565b611fc7611fbf82611fa0565b848454611f22565b825550505050565b600090565b611fdc611fcf565b611fe7818484611faa565b505050565b5b8181101561200b57612000600082611fd4565b600181019050611fed565b5050565b601f8211156120505761202181611ef0565b61202a84611f05565b81016020851015612039578190505b61204d61204585611f05565b830182611fec565b50505b505050565b600082821c905092915050565b600061207360001984600802612055565b1980831691505092915050565b600061208c8383612062565b9150826002028217905092915050565b6120a5826118ce565b67ffffffffffffffff8111156120be576120bd611ec1565b5b6120c88254611e90565b6120d382828561200f565b600060209050601f83116001811461210657600084156120f4578287015190505b6120fe8582612080565b865550612166565b601f19841661211486611ef0565b60005b8281101561213c57848901518255600182019150602085019450602081019050612117565b868310156121595784890151612155601f891682612062565b8355505b6001600288020188555050505b505050505050565b7f4e487b7100000000000000000000000000000000000000000000000000000000600052601160045260246000fd5b60006121a88261186b565b91507fffffffffffffffffffffffffffffffffffffffffffffffffffffffffffffffff82036121da576121d961216e565b5b60018201905091905056fea264697066735822122045c4b8cec058b06e22d8ea22d309104e7f73a3bfd0079f08f614be906013fd9b64736f6c63430008100033",
  "immutableReferences": {},
  "source": "pragma solidity ^0.8.16;\r\npragma experimental ABIEncoderV2;\r\n\r\ncontract FoodDonation{\r\n    \r\n    struct User{\r\n        string name;\r\n        string email;\r\n        uint phoneno;\r\n    }\r\n\r\n    struct Ngo{\r\n        string name;\r\n        string email;\r\n        uint phoneno;\r\n        string ngoAddress;\r\n        string uniqueId;\r\n    }\r\n\r\n    struct NgoDrives{\r\n        string driveName;\r\n        string ngoId;\r\n        string fridgeType;\r\n        string driveAddress;\r\n    }\r\n\r\n    struct PublicFridges{\r\n        string ngoID;\r\n        string totalSlots;\r\n        string fridgeType;\r\n        string fridgeAddress;\r\n    }\r\n\r\n    struct PublicFridgeDonation{\r\n        string ngoId;\r\n        string userId;\r\n        string publicFridgesId;\r\n        string status;\r\n    }\r\n\r\n    struct DriveFridgeDonation{\r\n        string ngoId;\r\n        string userId;\r\n        string driveId;\r\n    }\r\n\r\n    mapping(uint => User) public user;\r\n    mapping(uint => Ngo) public ngo;\r\n    mapping(uint => NgoDrives) public ngoDrives;\r\n    mapping(uint => PublicFridges) public publicFridges;\r\n    mapping(uint => PublicFridgeDonation) public publicFridgeDonation;\r\n    mapping(uint => DriveFridgeDonation) public driveFridgeDonation;\r\n\r\n    uint ngonextId = 1001;\r\n    uint usernextId = 1001;\r\n    uint ngodriveId = 1001;\r\n    uint publicFridgenextId = 1001;\r\n    uint publicFridgeDoId = 1001;\r\n    uint driveFridgeDoId = 1001;\r\n\r\n\r\n    function addUser(\r\n        string calldata name,\r\n        string calldata email,\r\n        uint phoneno\r\n    ) external{\r\n        user[usernextId] = User(name, email, phoneno);\r\n        usernextId++;\r\n    }\r\n\r\n    function addNgo(\r\n        string calldata name,\r\n        string calldata email,\r\n        uint phoneno,\r\n        string calldata ngoAddress,\r\n        string calldata uniqueId\r\n    ) external{\r\n        ngo[ngonextId] = Ngo(name, email, phoneno, ngoAddress, uniqueId);\r\n        ngonextId++;\r\n        \r\n    }\r\n\r\n\r\n    function addNgoDrives(\r\n        string calldata driveName,\r\n        string calldata ngoId,\r\n        string calldata fridgeType,\r\n        string calldata driveAddress\r\n    ) external{\r\n        ngoDrives[ngodriveId] = NgoDrives(driveName, ngoId, fridgeType, driveAddress);\r\n        ngodriveId++;   \r\n    }\r\n\r\n    function addPublicFridges(\r\n        string calldata ngoID,\r\n        string calldata totalSlots,\r\n        string calldata fridgeType,\r\n        string calldata fridgeAddress\r\n    ) external{\r\n        publicFridges[publicFridgenextId] =PublicFridges(ngoID, totalSlots, fridgeType, fridgeAddress);\r\n        publicFridgenextId++;   \r\n    }\r\n\r\n    function addPublicFridgeDonations(\r\n        string calldata ngoId,\r\n        string calldata userId,\r\n        string calldata publicFridgesId,\r\n        string calldata status\r\n    ) external{\r\n        publicFridgeDonation[publicFridgeDoId] =  PublicFridgeDonation(ngoId, userId, publicFridgesId, status);\r\n        publicFridgeDoId++;   \r\n    }\r\n\r\n        function addDriveFridgeDonation(\r\n        string calldata ngoId,\r\n        string calldata userId,\r\n        string calldata driveId\r\n    ) external{\r\n        driveFridgeDonation[ driveFridgeDoId] =  DriveFridgeDonation(ngoId, userId, driveId);\r\n         driveFridgeDoId++;   \r\n    }\r\n\r\n}",
  "sourcePath": "D:\\minor final project\\server\\contracts\\FoodDonation.sol",
  "compiler": {
    "name": "solc",
    "version": "0.8.16+commit.07a7930e.Emscripten.clang"
  },
  "schemaVersion": "3.4.10",
  "updatedAt": "2022-11-05T04:16:32.725Z",
  "networkType": "ethereum",
  "devdoc": {
    "kind": "dev",
    "methods": {},
    "version": 1
  },
  "userdoc": {
    "kind": "user",
    "methods": {},
    "version": 1
  }
}