{
  "contractName": "FoodDonation",
  "abi": [
    {
      "inputs": [
        {
          "internalType": "string",
          "name": "",
          "type": "string"
        }
      ],
      "name": "donation",
      "outputs": [
        {
          "internalType": "string",
          "name": "donationId",
          "type": "string"
        },
        {
          "internalType": "string",
          "name": "ngoID",
          "type": "string"
        },
        {
          "internalType": "string",
          "name": "userID",
          "type": "string"
        },
        {
          "internalType": "string",
          "name": "publicFridgesID",
          "type": "string"
        },
        {
          "internalType": "string",
          "name": "donationType",
          "type": "string"
        }
      ],
      "stateMutability": "view",
      "type": "function",
      "constant": true
    },
    {
      "inputs": [
        {
          "internalType": "uint256",
          "name": "",
          "type": "uint256"
        }
      ],
      "name": "donationKey",
      "outputs": [
        {
          "internalType": "string",
          "name": "",
          "type": "string"
        }
      ],
      "stateMutability": "view",
      "type": "function",
      "constant": true
    },
    {
      "inputs": [
        {
          "internalType": "string",
          "name": "",
          "type": "string"
        }
      ],
      "name": "ngo",
      "outputs": [
        {
          "internalType": "string",
          "name": "ngoId",
          "type": "string"
        },
        {
          "internalType": "string",
          "name": "name",
          "type": "string"
        },
        {
          "internalType": "string",
          "name": "email",
          "type": "string"
        },
        {
          "internalType": "uint256",
          "name": "phoneno",
          "type": "uint256"
        },
        {
          "internalType": "string",
          "name": "ngoAddress",
          "type": "string"
        }
      ],
      "stateMutability": "view",
      "type": "function",
      "constant": true
    },
    {
      "inputs": [
        {
          "internalType": "string",
          "name": "",
          "type": "string"
        },
        {
          "internalType": "uint256",
          "name": "",
          "type": "uint256"
        }
      ],
      "name": "ngoDonation",
      "outputs": [
        {
          "internalType": "string",
          "name": "",
          "type": "string"
        }
      ],
      "stateMutability": "view",
      "type": "function",
      "constant": true
    },
    {
      "inputs": [
        {
          "internalType": "string",
          "name": "",
          "type": "string"
        },
        {
          "internalType": "uint256",
          "name": "",
          "type": "uint256"
        }
      ],
      "name": "ngoFridge",
      "outputs": [
        {
          "internalType": "string",
          "name": "",
          "type": "string"
        }
      ],
      "stateMutability": "view",
      "type": "function",
      "constant": true
    },
    {
      "inputs": [
        {
          "internalType": "string",
          "name": "",
          "type": "string"
        },
        {
          "internalType": "uint256",
          "name": "",
          "type": "uint256"
        }
      ],
      "name": "userDonation",
      "outputs": [
        {
          "internalType": "string",
          "name": "",
          "type": "string"
        }
      ],
      "stateMutability": "view",
      "type": "function",
      "constant": true
    },
    {
      "inputs": [
        {
          "internalType": "string",
          "name": "ngoId",
          "type": "string"
        },
        {
          "internalType": "string",
          "name": "name",
          "type": "string"
        },
        {
          "internalType": "string",
          "name": "email",
          "type": "string"
        },
        {
          "internalType": "uint256",
          "name": "phoneno",
          "type": "uint256"
        },
        {
          "internalType": "string",
          "name": "ngoAddress",
          "type": "string"
        }
      ],
      "name": "addNgo",
      "outputs": [],
      "stateMutability": "nonpayable",
      "type": "function"
    },
    {
      "inputs": [
        {
          "internalType": "string",
          "name": "Id",
          "type": "string"
        }
      ],
      "name": "getNgo",
      "outputs": [
        {
          "internalType": "string",
          "name": "ngoId",
          "type": "string"
        },
        {
          "internalType": "string",
          "name": "name",
          "type": "string"
        },
        {
          "internalType": "string",
          "name": "email",
          "type": "string"
        },
        {
          "internalType": "uint256",
          "name": "phoneno",
          "type": "uint256"
        },
        {
          "internalType": "string",
          "name": "ngoAddress",
          "type": "string"
        }
      ],
      "stateMutability": "view",
      "type": "function",
      "constant": true
    },
    {
      "inputs": [
        {
          "internalType": "string",
          "name": "donationId",
          "type": "string"
        },
        {
          "internalType": "string",
          "name": "ngoID",
          "type": "string"
        },
        {
          "internalType": "string",
          "name": "userID",
          "type": "string"
        },
        {
          "internalType": "string",
          "name": "publicFridgesID",
          "type": "string"
        },
        {
          "internalType": "string",
          "name": "donationType",
          "type": "string"
        }
      ],
      "name": "addDonation",
      "outputs": [],
      "stateMutability": "nonpayable",
      "type": "function"
    },
    {
      "inputs": [
        {
          "internalType": "string",
          "name": "x",
          "type": "string"
        }
      ],
      "name": "getDonation",
      "outputs": [
        {
          "internalType": "string",
          "name": "donationId",
          "type": "string"
        },
        {
          "internalType": "string",
          "name": "ngoID",
          "type": "string"
        },
        {
          "internalType": "string",
          "name": "userID",
          "type": "string"
        },
        {
          "internalType": "string",
          "name": "publicFridgesID",
          "type": "string"
        },
        {
          "internalType": "string",
          "name": "donationType",
          "type": "string"
        }
      ],
      "stateMutability": "view",
      "type": "function",
      "constant": true
    },
    {
      "inputs": [],
      "name": "getDonations",
      "outputs": [
        {
          "components": [
            {
              "internalType": "string",
              "name": "donationId",
              "type": "string"
            },
            {
              "internalType": "string",
              "name": "ngoID",
              "type": "string"
            },
            {
              "internalType": "string",
              "name": "userID",
              "type": "string"
            },
            {
              "internalType": "string",
              "name": "publicFridgesID",
              "type": "string"
            },
            {
              "internalType": "string",
              "name": "donationType",
              "type": "string"
            }
          ],
          "internalType": "struct FoodDonation.Donation[]",
          "name": "",
          "type": "tuple[]"
        }
      ],
      "stateMutability": "view",
      "type": "function",
      "constant": true
    },
    {
      "inputs": [
        {
          "internalType": "string",
          "name": "userId",
          "type": "string"
        }
      ],
      "name": "getUserDonations",
      "outputs": [
        {
          "components": [
            {
              "internalType": "string",
              "name": "donationId",
              "type": "string"
            },
            {
              "internalType": "string",
              "name": "ngoID",
              "type": "string"
            },
            {
              "internalType": "string",
              "name": "userID",
              "type": "string"
            },
            {
              "internalType": "string",
              "name": "publicFridgesID",
              "type": "string"
            },
            {
              "internalType": "string",
              "name": "donationType",
              "type": "string"
            }
          ],
          "internalType": "struct FoodDonation.Donation[]",
          "name": "",
          "type": "tuple[]"
        }
      ],
      "stateMutability": "view",
      "type": "function",
      "constant": true
    },
    {
      "inputs": [
        {
          "internalType": "string",
          "name": "ngoId",
          "type": "string"
        }
      ],
      "name": "getNgoDonations",
      "outputs": [
        {
          "components": [
            {
              "internalType": "string",
              "name": "donationId",
              "type": "string"
            },
            {
              "internalType": "string",
              "name": "ngoID",
              "type": "string"
            },
            {
              "internalType": "string",
              "name": "userID",
              "type": "string"
            },
            {
              "internalType": "string",
              "name": "publicFridgesID",
              "type": "string"
            },
            {
              "internalType": "string",
              "name": "donationType",
              "type": "string"
            }
          ],
          "internalType": "struct FoodDonation.Donation[]",
          "name": "",
          "type": "tuple[]"
        }
      ],
      "stateMutability": "view",
      "type": "function",
      "constant": true
    },
    {
      "inputs": [
        {
          "internalType": "string",
          "name": "PublicFridgesId",
          "type": "string"
        },
        {
          "internalType": "string",
          "name": "NgoId",
          "type": "string"
        },
        {
          "internalType": "string",
          "name": "publicFridgeAddress",
          "type": "string"
        }
      ],
      "name": "addFridge",
      "outputs": [],
      "stateMutability": "nonpayable",
      "type": "function"
    },
    {
      "inputs": [],
      "name": "getAllFridge",
      "outputs": [
        {
          "components": [
            {
              "internalType": "string",
              "name": "PublicFridgesId",
              "type": "string"
            },
            {
              "internalType": "string",
              "name": "NgoId",
              "type": "string"
            },
            {
              "internalType": "string",
              "name": "publicFridgeAddress",
              "type": "string"
            }
          ],
          "internalType": "struct FoodDonation.PublicFridges[]",
          "name": "",
          "type": "tuple[]"
        }
      ],
      "stateMutability": "view",
      "type": "function",
      "constant": true
    },
    {
      "inputs": [
        {
          "internalType": "string",
          "name": "NgoId",
          "type": "string"
        }
      ],
      "name": "getNgoFridge",
      "outputs": [
        {
          "components": [
            {
              "internalType": "string",
              "name": "PublicFridgesId",
              "type": "string"
            },
            {
              "internalType": "string",
              "name": "NgoId",
              "type": "string"
            },
            {
              "internalType": "string",
              "name": "publicFridgeAddress",
              "type": "string"
            }
          ],
          "internalType": "struct FoodDonation.PublicFridges[]",
          "name": "",
          "type": "tuple[]"
        }
      ],
      "stateMutability": "view",
      "type": "function",
      "constant": true
    }
  ],
  "bytecode": "0x60806040526001600555600160095534801561001a57600080fd5b50613dd98061002a6000396000f3fe608060405234801561001057600080fd5b50600436106101005760003560e01c80639ce13bcc11610097578063b0dcf1cc11610066578063b0dcf1cc1461032d578063e25f84161461034b578063f1e827f614610369578063f7b9fc891461039957610100565b80639ce13bcc14610261578063a216fb1014610291578063a901ccee146102c5578063ab0371d8146102f957610100565b80636604acf7116100d35780636604acf7146101c9578063673e9404146101f957806369ffa57d146102295780638c3a183f1461024557610100565b80631d0c45dc1461010557806329b10a2514610135578063383f4d68146101655780635adce33214610195575b600080fd5b61011f600480360381019061011a9190612e85565b6103b5565b60405161012c9190613082565b60405180910390f35b61014f600480360381019061014a919061320a565b61076e565b60405161015c91906132b0565b60405180910390f35b61017f600480360381019061017a91906132d2565b61083d565b60405161018c91906132b0565b60405180910390f35b6101af60048036038101906101aa9190612e85565b6108dd565b6040516101c09594939291906132ff565b60405180910390f35b6101e360048036038101906101de919061320a565b610c1c565b6040516101f091906132b0565b60405180910390f35b610213600480360381019061020e9190612e85565b610ceb565b60405161022091906134c9565b60405180910390f35b610243600480360381019061023e91906134eb565b6111ac565b005b61025f600480360381019061025a919061359f565b611399565b005b61027b60048036038101906102769190612e85565b611560565b60405161028891906134c9565b60405180910390f35b6102ab60048036038101906102a6919061369b565b611a21565b6040516102bc9594939291906132ff565b60405180910390f35b6102df60048036038101906102da919061369b565b611d15565b6040516102f09594939291906136f3565b60405180910390f35b610313600480360381019061030e9190612e85565b611f81565b6040516103249594939291906136f3565b60405180910390f35b610335612234565b6040516103429190613082565b60405180910390f35b610353612578565b60405161036091906134c9565b60405180910390f35b610383600480360381019061037e919061320a565b6129e0565b60405161039091906132b0565b60405180910390f35b6103b360048036038101906103ae9190613762565b612aaf565b005b60606000600884846040516103cb9291906138af565b9081526020016040518091039020805480602002602001604051908101604052809291908181526020016000905b828210156104a5578382906000526020600020018054610418906138f7565b80601f0160208091040260200160405190810160405280929190818152602001828054610444906138f7565b80156104915780601f1061046657610100808354040283529160200191610491565b820191906000526020600020905b81548152906001019060200180831161047457829003601f168201915b5050505050815260200190600101906103f9565b5050505090506000600182516104bb9190613957565b67ffffffffffffffff8111156104d4576104d36130a9565b5b60405190808252806020026020018201604052801561050d57816020015b6104fa612dbc565b8152602001906001900390816104f25790505b5090506000600190505b600183516105259190613957565b8110156107625760008382815181106105415761054061398b565b5b60200260200101519050600060068260405161055d91906139eb565b9081526020016040518091039020905080604051806060016040529081600082018054610589906138f7565b80601f01602080910402602001604051908101604052809291908181526020018280546105b5906138f7565b80156106025780601f106105d757610100808354040283529160200191610602565b820191906000526020600020905b8154815290600101906020018083116105e557829003601f168201915b5050505050815260200160018201805461061b906138f7565b80601f0160208091040260200160405190810160405280929190818152602001828054610647906138f7565b80156106945780601f1061066957610100808354040283529160200191610694565b820191906000526020600020905b81548152906001019060200180831161067757829003601f168201915b505050505081526020016002820180546106ad906138f7565b80601f01602080910402602001604051908101604052809291908181526020018280546106d9906138f7565b80156107265780601f106106fb57610100808354040283529160200191610726565b820191906000526020600020905b81548152906001019060200180831161070957829003601f168201915b5050505050815250508484815181106107425761074161398b565b5b60200260200101819052505050808061075a90613a02565b915050610517565b50809250505092915050565b60028280516020810182018051848252602083016020850120818352809550505050505081815481106107a057600080fd5b906000526020600020016000915091505080546107bc906138f7565b80601f01602080910402602001604051908101604052809291908181526020018280546107e8906138f7565b80156108355780601f1061080a57610100808354040283529160200191610835565b820191906000526020600020905b81548152906001019060200180831161081857829003601f168201915b505050505081565b6004602052806000526040600020600091509050805461085c906138f7565b80601f0160208091040260200160405190810160405280929190818152602001828054610888906138f7565b80156108d55780601f106108aa576101008083540402835291602001916108d5565b820191906000526020600020905b8154815290600101906020018083116108b857829003601f168201915b505050505081565b60608060608060606000600188886040516108f99291906138af565b90815260200160405180910390206040518060a0016040529081600082018054610922906138f7565b80601f016020809104026020016040519081016040528092919081815260200182805461094e906138f7565b801561099b5780601f106109705761010080835404028352916020019161099b565b820191906000526020600020905b81548152906001019060200180831161097e57829003601f168201915b505050505081526020016001820180546109b4906138f7565b80601f01602080910402602001604051908101604052809291908181526020018280546109e0906138f7565b8015610a2d5780601f10610a0257610100808354040283529160200191610a2d565b820191906000526020600020905b815481529060010190602001808311610a1057829003601f168201915b50505050508152602001600282018054610a46906138f7565b80601f0160208091040260200160405190810160405280929190818152602001828054610a72906138f7565b8015610abf5780601f10610a9457610100808354040283529160200191610abf565b820191906000526020600020905b815481529060010190602001808311610aa257829003601f168201915b50505050508152602001600382018054610ad8906138f7565b80601f0160208091040260200160405190810160405280929190818152602001828054610b04906138f7565b8015610b515780601f10610b2657610100808354040283529160200191610b51565b820191906000526020600020905b815481529060010190602001808311610b3457829003601f168201915b50505050508152602001600482018054610b6a906138f7565b80601f0160208091040260200160405190810160405280929190818152602001828054610b96906138f7565b8015610be35780601f10610bb857610100808354040283529160200191610be3565b820191906000526020600020905b815481529060010190602001808311610bc657829003601f168201915b50505050508152505090508060000151816020015182604001518360600151846080015195509550955095509550509295509295909350565b6008828051602081018201805184825260208301602085012081835280955050505050508181548110610c4e57600080fd5b90600052602060002001600091509150508054610c6a906138f7565b80601f0160208091040260200160405190810160405280929190818152602001828054610c96906138f7565b8015610ce35780601f10610cb857610100808354040283529160200191610ce3565b820191906000526020600020905b815481529060010190602001808311610cc657829003601f168201915b505050505081565b6060600060028484604051610d019291906138af565b9081526020016040518091039020805480602002602001604051908101604052809291908181526020016000905b82821015610ddb578382906000526020600020018054610d4e906138f7565b80601f0160208091040260200160405190810160405280929190818152602001828054610d7a906138f7565b8015610dc75780601f10610d9c57610100808354040283529160200191610dc7565b820191906000526020600020905b815481529060010190602001808311610daa57829003601f168201915b505050505081526020019060010190610d2f565b5050505090506000815167ffffffffffffffff811115610dfe57610dfd6130a9565b5b604051908082528060200260200182016040528015610e3757816020015b610e24612ddd565b815260200190600190039081610e1c5790505b50905060005b82518110156111a0576000838281518110610e5b57610e5a61398b565b5b602002602001015190506000600182604051610e7791906139eb565b90815260200160405180910390209050806040518060a0016040529081600082018054610ea3906138f7565b80601f0160208091040260200160405190810160405280929190818152602001828054610ecf906138f7565b8015610f1c5780601f10610ef157610100808354040283529160200191610f1c565b820191906000526020600020905b815481529060010190602001808311610eff57829003601f168201915b50505050508152602001600182018054610f35906138f7565b80601f0160208091040260200160405190810160405280929190818152602001828054610f61906138f7565b8015610fae5780601f10610f8357610100808354040283529160200191610fae565b820191906000526020600020905b815481529060010190602001808311610f9157829003601f168201915b50505050508152602001600282018054610fc7906138f7565b80601f0160208091040260200160405190810160405280929190818152602001828054610ff3906138f7565b80156110405780601f1061101557610100808354040283529160200191611040565b820191906000526020600020905b81548152906001019060200180831161102357829003601f168201915b50505050508152602001600382018054611059906138f7565b80601f0160208091040260200160405190810160405280929190818152602001828054611085906138f7565b80156110d25780601f106110a7576101008083540402835291602001916110d2565b820191906000526020600020905b8154815290600101906020018083116110b557829003601f168201915b505050505081526020016004820180546110eb906138f7565b80601f0160208091040260200160405190810160405280929190818152602001828054611117906138f7565b80156111645780601f1061113957610100808354040283529160200191611164565b820191906000526020600020905b81548152906001019060200180831161114757829003601f168201915b5050505050815250508484815181106111805761117f61398b565b5b60200260200101819052505050808061119890613a02565b915050610e3d565b50809250505092915050565b604051806060016040528087878080601f016020809104026020016040519081016040528093929190818152602001838380828437600081840152601f19601f82011690508083019250505050505050815260200185858080601f016020809104026020016040519081016040528093929190818152602001838380828437600081840152601f19601f82011690508083019250505050505050815260200183838080601f016020809104026020016040519081016040528093929190818152602001838380828437600081840152601f19601f82011690508083019250505050505050815250600687876040516112a59291906138af565b908152602001604051809103902060008201518160000190816112c89190613bf6565b5060208201518160010190816112de9190613bf6565b5060408201518160020190816112f49190613bf6565b509050508585600760006009548152602001908152602001600020918261131c929190613cd3565b506008848460405161132f9291906138af565b9081526020016040518091039020868690918060018154018082558091505060019003906000526020600020016000909192909192909192909192509182611378929190613cd3565b506009600081548092919061138c90613a02565b9190505550505050505050565b6040518060a001604052808a8a8080601f016020809104026020016040519081016040528093929190818152602001838380828437600081840152601f19601f82011690508083019250505050505050815260200188888080601f016020809104026020016040519081016040528093929190818152602001838380828437600081840152601f19601f82011690508083019250505050505050815260200186868080601f016020809104026020016040519081016040528093929190818152602001838380828437600081840152601f19601f82011690508083019250505050505050815260200184815260200183838080601f016020809104026020016040519081016040528093929190818152602001838380828437600081840152601f19601f8201169050808301925050505050505081525060008a8a6040516114e29291906138af565b908152602001604051809103902060008201518160000190816115059190613bf6565b50602082015181600101908161151b9190613bf6565b5060408201518160020190816115319190613bf6565b506060820151816003015560808201518160040190816115519190613bf6565b50905050505050505050505050565b60606000600384846040516115769291906138af565b9081526020016040518091039020805480602002602001604051908101604052809291908181526020016000905b828210156116505783829060005260206000200180546115c3906138f7565b80601f01602080910402602001604051908101604052809291908181526020018280546115ef906138f7565b801561163c5780601f106116115761010080835404028352916020019161163c565b820191906000526020600020905b81548152906001019060200180831161161f57829003601f168201915b5050505050815260200190600101906115a4565b5050505090506000815167ffffffffffffffff811115611673576116726130a9565b5b6040519080825280602002602001820160405280156116ac57816020015b611699612ddd565b8152602001906001900390816116915790505b50905060005b8251811015611a155760008382815181106116d0576116cf61398b565b5b6020026020010151905060006001826040516116ec91906139eb565b90815260200160405180910390209050806040518060a0016040529081600082018054611718906138f7565b80601f0160208091040260200160405190810160405280929190818152602001828054611744906138f7565b80156117915780601f1061176657610100808354040283529160200191611791565b820191906000526020600020905b81548152906001019060200180831161177457829003601f168201915b505050505081526020016001820180546117aa906138f7565b80601f01602080910402602001604051908101604052809291908181526020018280546117d6906138f7565b80156118235780601f106117f857610100808354040283529160200191611823565b820191906000526020600020905b81548152906001019060200180831161180657829003601f168201915b5050505050815260200160028201805461183c906138f7565b80601f0160208091040260200160405190810160405280929190818152602001828054611868906138f7565b80156118b55780601f1061188a576101008083540402835291602001916118b5565b820191906000526020600020905b81548152906001019060200180831161189857829003601f168201915b505050505081526020016003820180546118ce906138f7565b80601f01602080910402602001604051908101604052809291908181526020018280546118fa906138f7565b80156119475780601f1061191c57610100808354040283529160200191611947565b820191906000526020600020905b81548152906001019060200180831161192a57829003601f168201915b50505050508152602001600482018054611960906138f7565b80601f016020809104026020016040519081016040528092919081815260200182805461198c906138f7565b80156119d95780601f106119ae576101008083540402835291602001916119d9565b820191906000526020600020905b8154815290600101906020018083116119bc57829003601f168201915b5050505050815250508484815181106119f5576119f461398b565b5b602002602001018190525050508080611a0d90613a02565b9150506116b2565b50809250505092915050565b600181805160208101820180518482526020830160208501208183528095505050505050600091509050806000018054611a5a906138f7565b80601f0160208091040260200160405190810160405280929190818152602001828054611a86906138f7565b8015611ad35780601f10611aa857610100808354040283529160200191611ad3565b820191906000526020600020905b815481529060010190602001808311611ab657829003601f168201915b505050505090806001018054611ae8906138f7565b80601f0160208091040260200160405190810160405280929190818152602001828054611b14906138f7565b8015611b615780601f10611b3657610100808354040283529160200191611b61565b820191906000526020600020905b815481529060010190602001808311611b4457829003601f168201915b505050505090806002018054611b76906138f7565b80601f0160208091040260200160405190810160405280929190818152602001828054611ba2906138f7565b8015611bef5780601f10611bc457610100808354040283529160200191611bef565b820191906000526020600020905b815481529060010190602001808311611bd257829003601f168201915b505050505090806003018054611c04906138f7565b80601f0160208091040260200160405190810160405280929190818152602001828054611c30906138f7565b8015611c7d5780601f10611c5257610100808354040283529160200191611c7d565b820191906000526020600020905b815481529060010190602001808311611c6057829003601f168201915b505050505090806004018054611c92906138f7565b80601f0160208091040260200160405190810160405280929190818152602001828054611cbe906138f7565b8015611d0b5780601f10611ce057610100808354040283529160200191611d0b565b820191906000526020600020905b815481529060010190602001808311611cee57829003601f168201915b5050505050905085565b600081805160208101820180518482526020830160208501208183528095505050505050600091509050806000018054611d4e906138f7565b80601f0160208091040260200160405190810160405280929190818152602001828054611d7a906138f7565b8015611dc75780601f10611d9c57610100808354040283529160200191611dc7565b820191906000526020600020905b815481529060010190602001808311611daa57829003601f168201915b505050505090806001018054611ddc906138f7565b80601f0160208091040260200160405190810160405280929190818152602001828054611e08906138f7565b8015611e555780601f10611e2a57610100808354040283529160200191611e55565b820191906000526020600020905b815481529060010190602001808311611e3857829003601f168201915b505050505090806002018054611e6a906138f7565b80601f0160208091040260200160405190810160405280929190818152602001828054611e96906138f7565b8015611ee35780601f10611eb857610100808354040283529160200191611ee3565b820191906000526020600020905b815481529060010190602001808311611ec657829003601f168201915b505050505090806003015490806004018054611efe906138f7565b80601f0160208091040260200160405190810160405280929190818152602001828054611f2a906138f7565b8015611f775780601f10611f4c57610100808354040283529160200191611f77565b820191906000526020600020905b815481529060010190602001808311611f5a57829003601f168201915b5050505050905085565b6060806060600060606000808888604051611f9d9291906138af565b90815260200160405180910390206040518060a0016040529081600082018054611fc6906138f7565b80601f0160208091040260200160405190810160405280929190818152602001828054611ff2906138f7565b801561203f5780601f106120145761010080835404028352916020019161203f565b820191906000526020600020905b81548152906001019060200180831161202257829003601f168201915b50505050508152602001600182018054612058906138f7565b80601f0160208091040260200160405190810160405280929190818152602001828054612084906138f7565b80156120d15780601f106120a6576101008083540402835291602001916120d1565b820191906000526020600020905b8154815290600101906020018083116120b457829003601f168201915b505050505081526020016002820180546120ea906138f7565b80601f0160208091040260200160405190810160405280929190818152602001828054612116906138f7565b80156121635780601f1061213857610100808354040283529160200191612163565b820191906000526020600020905b81548152906001019060200180831161214657829003601f168201915b5050505050815260200160038201548152602001600482018054612186906138f7565b80601f01602080910402602001604051908101604052809291908181526020018280546121b2906138f7565b80156121ff5780601f106121d4576101008083540402835291602001916121ff565b820191906000526020600020905b8154815290600101906020018083116121e257829003601f168201915b505050505081525050905085816020015182604001518360600151846080015195509550955095509550509295509295909350565b6060600060016009546122479190613957565b67ffffffffffffffff8111156122605761225f6130a9565b5b60405190808252806020026020018201604052801561229957816020015b612286612dbc565b81526020019060019003908161227e5790505b5090506000600190505b60016009546122b29190613957565b8110156125705760006007600083815260200190815260200160002080546122d9906138f7565b80601f0160208091040260200160405190810160405280929190818152602001828054612305906138f7565b80156123525780601f1061232757610100808354040283529160200191612352565b820191906000526020600020905b81548152906001019060200180831161233557829003601f168201915b50505050509050600060068260405161236b91906139eb565b9081526020016040518091039020905080604051806060016040529081600082018054612397906138f7565b80601f01602080910402602001604051908101604052809291908181526020018280546123c3906138f7565b80156124105780601f106123e557610100808354040283529160200191612410565b820191906000526020600020905b8154815290600101906020018083116123f357829003601f168201915b50505050508152602001600182018054612429906138f7565b80601f0160208091040260200160405190810160405280929190818152602001828054612455906138f7565b80156124a25780601f10612477576101008083540402835291602001916124a2565b820191906000526020600020905b81548152906001019060200180831161248557829003601f168201915b505050505081526020016002820180546124bb906138f7565b80601f01602080910402602001604051908101604052809291908181526020018280546124e7906138f7565b80156125345780601f1061250957610100808354040283529160200191612534565b820191906000526020600020905b81548152906001019060200180831161251757829003601f168201915b5050505050815250508484815181106125505761254f61398b565b5b60200260200101819052505050808061256890613a02565b9150506122a3565b508091505090565b60606000600160055461258b9190613957565b67ffffffffffffffff8111156125a4576125a36130a9565b5b6040519080825280602002602001820160405280156125dd57816020015b6125ca612ddd565b8152602001906001900390816125c25790505b5090506000600190505b60016005546125f69190613957565b8110156129d857600060046000838152602001908152602001600020805461261d906138f7565b80601f0160208091040260200160405190810160405280929190818152602001828054612649906138f7565b80156126965780601f1061266b57610100808354040283529160200191612696565b820191906000526020600020905b81548152906001019060200180831161267957829003601f168201915b5050505050905060006001826040516126af91906139eb565b90815260200160405180910390209050806040518060a00160405290816000820180546126db906138f7565b80601f0160208091040260200160405190810160405280929190818152602001828054612707906138f7565b80156127545780601f1061272957610100808354040283529160200191612754565b820191906000526020600020905b81548152906001019060200180831161273757829003601f168201915b5050505050815260200160018201805461276d906138f7565b80601f0160208091040260200160405190810160405280929190818152602001828054612799906138f7565b80156127e65780601f106127bb576101008083540402835291602001916127e6565b820191906000526020600020905b8154815290600101906020018083116127c957829003601f168201915b505050505081526020016002820180546127ff906138f7565b80601f016020809104026020016040519081016040528092919081815260200182805461282b906138f7565b80156128785780601f1061284d57610100808354040283529160200191612878565b820191906000526020600020905b81548152906001019060200180831161285b57829003601f168201915b50505050508152602001600382018054612891906138f7565b80601f01602080910402602001604051908101604052809291908181526020018280546128bd906138f7565b801561290a5780601f106128df5761010080835404028352916020019161290a565b820191906000526020600020905b8154815290600101906020018083116128ed57829003601f168201915b50505050508152602001600482018054612923906138f7565b80601f016020809104026020016040519081016040528092919081815260200182805461294f906138f7565b801561299c5780601f106129715761010080835404028352916020019161299c565b820191906000526020600020905b81548152906001019060200180831161297f57829003601f168201915b5050505050815250508484815181106129b8576129b761398b565b5b6020026020010181905250505080806129d090613a02565b9150506125e7565b508091505090565b6003828051602081018201805184825260208301602085012081835280955050505050508181548110612a1257600080fd5b90600052602060002001600091509150508054612a2e906138f7565b80601f0160208091040260200160405190810160405280929190818152602001828054612a5a906138f7565b8015612aa75780601f10612a7c57610100808354040283529160200191612aa7565b820191906000526020600020905b815481529060010190602001808311612a8a57829003601f168201915b505050505081565b6040518060a001604052808b8b8080601f016020809104026020016040519081016040528093929190818152602001838380828437600081840152601f19601f82011690508083019250505050505050815260200189898080601f016020809104026020016040519081016040528093929190818152602001838380828437600081840152601f19601f82011690508083019250505050505050815260200187878080601f016020809104026020016040519081016040528093929190818152602001838380828437600081840152601f19601f82011690508083019250505050505050815260200185858080601f016020809104026020016040519081016040528093929190818152602001838380828437600081840152601f19601f82011690508083019250505050505050815260200183838080601f016020809104026020016040519081016040528093929190818152602001838380828437600081840152601f19601f8201169050808301925050505050505081525060018b8b604051612c3c9291906138af565b90815260200160405180910390206000820151816000019081612c5f9190613bf6565b506020820151816001019081612c759190613bf6565b506040820151816002019081612c8b9190613bf6565b506060820151816003019081612ca19190613bf6565b506080820151816004019081612cb79190613bf6565b5090505089896004600060055481526020019081526020016000209182612cdf929190613cd3565b5060028686604051612cf29291906138af565b90815260200160405180910390208a8a90918060018154018082558091505060019003906000526020600020016000909192909192909192909192509182612d3b929190613cd3565b5060038888604051612d4e9291906138af565b90815260200160405180910390208a8a90918060018154018082558091505060019003906000526020600020016000909192909192909192909192509182612d97929190613cd3565b5060056000815480929190612dab90613a02565b919050555050505050505050505050565b60405180606001604052806060815260200160608152602001606081525090565b6040518060a0016040528060608152602001606081526020016060815260200160608152602001606081525090565b6000604051905090565b600080fd5b600080fd5b600080fd5b600080fd5b600080fd5b60008083601f840112612e4557612e44612e20565b5b8235905067ffffffffffffffff811115612e6257612e61612e25565b5b602083019150836001820283011115612e7e57612e7d612e2a565b5b9250929050565b60008060208385031215612e9c57612e9b612e16565b5b600083013567ffffffffffffffff811115612eba57612eb9612e1b565b5b612ec685828601612e2f565b92509250509250929050565b600081519050919050565b600082825260208201905092915050565b6000819050602082019050919050565b600081519050919050565b600082825260208201905092915050565b60005b83811015612f38578082015181840152602081019050612f1d565b60008484015250505050565b6000601f19601f8301169050919050565b6000612f6082612efe565b612f6a8185612f09565b9350612f7a818560208601612f1a565b612f8381612f44565b840191505092915050565b60006060830160008301518482036000860152612fab8282612f55565b91505060208301518482036020860152612fc58282612f55565b91505060408301518482036040860152612fdf8282612f55565b9150508091505092915050565b6000612ff88383612f8e565b905092915050565b6000602082019050919050565b600061301882612ed2565b6130228185612edd565b93508360208202850161303485612eee565b8060005b8581101561307057848403895281516130518582612fec565b945061305c83613000565b925060208a01995050600181019050613038565b50829750879550505050505092915050565b6000602082019050818103600083015261309c818461300d565b905092915050565b600080fd5b7f4e487b7100000000000000000000000000000000000000000000000000000000600052604160045260246000fd5b6130e182612f44565b810181811067ffffffffffffffff82111715613100576130ff6130a9565b5b80604052505050565b6000613113612e0c565b905061311f82826130d8565b919050565b600067ffffffffffffffff82111561313f5761313e6130a9565b5b61314882612f44565b9050602081019050919050565b82818337600083830152505050565b600061317761317284613124565b613109565b905082815260208101848484011115613193576131926130a4565b5b61319e848285613155565b509392505050565b600082601f8301126131bb576131ba612e20565b5b81356131cb848260208601613164565b91505092915050565b6000819050919050565b6131e7816131d4565b81146131f257600080fd5b50565b600081359050613204816131de565b92915050565b6000806040838503121561322157613220612e16565b5b600083013567ffffffffffffffff81111561323f5761323e612e1b565b5b61324b858286016131a6565b925050602061325c858286016131f5565b9150509250929050565b600082825260208201905092915050565b600061328282612efe565b61328c8185613266565b935061329c818560208601612f1a565b6132a581612f44565b840191505092915050565b600060208201905081810360008301526132ca8184613277565b905092915050565b6000602082840312156132e8576132e7612e16565b5b60006132f6848285016131f5565b91505092915050565b600060a08201905081810360008301526133198188613277565b9050818103602083015261332d8187613277565b905081810360408301526133418186613277565b905081810360608301526133558185613277565b905081810360808301526133698184613277565b90509695505050505050565b600081519050919050565b600082825260208201905092915050565b6000819050602082019050919050565b600060a08301600083015184820360008601526133be8282612f55565b915050602083015184820360208601526133d88282612f55565b915050604083015184820360408601526133f28282612f55565b9150506060830151848203606086015261340c8282612f55565b915050608083015184820360808601526134268282612f55565b9150508091505092915050565b600061343f83836133a1565b905092915050565b6000602082019050919050565b600061345f82613375565b6134698185613380565b93508360208202850161347b85613391565b8060005b858110156134b757848403895281516134988582613433565b94506134a383613447565b925060208a0199505060018101905061347f565b50829750879550505050505092915050565b600060208201905081810360008301526134e38184613454565b905092915050565b6000806000806000806060878903121561350857613507612e16565b5b600087013567ffffffffffffffff81111561352657613525612e1b565b5b61353289828a01612e2f565b9650965050602087013567ffffffffffffffff81111561355557613554612e1b565b5b61356189828a01612e2f565b9450945050604087013567ffffffffffffffff81111561358457613583612e1b565b5b61359089828a01612e2f565b92509250509295509295509295565b600080600080600080600080600060a08a8c0312156135c1576135c0612e16565b5b60008a013567ffffffffffffffff8111156135df576135de612e1b565b5b6135eb8c828d01612e2f565b995099505060208a013567ffffffffffffffff81111561360e5761360d612e1b565b5b61361a8c828d01612e2f565b975097505060408a013567ffffffffffffffff81111561363d5761363c612e1b565b5b6136498c828d01612e2f565b9550955050606061365c8c828d016131f5565b93505060808a013567ffffffffffffffff81111561367d5761367c612e1b565b5b6136898c828d01612e2f565b92509250509295985092959850929598565b6000602082840312156136b1576136b0612e16565b5b600082013567ffffffffffffffff8111156136cf576136ce612e1b565b5b6136db848285016131a6565b91505092915050565b6136ed816131d4565b82525050565b600060a082019050818103600083015261370d8188613277565b905081810360208301526137218187613277565b905081810360408301526137358186613277565b905061374460608301856136e4565b81810360808301526137568184613277565b90509695505050505050565b60008060008060008060008060008060a08b8d03121561378557613784612e16565b5b60008b013567ffffffffffffffff8111156137a3576137a2612e1b565b5b6137af8d828e01612e2f565b9a509a505060208b013567ffffffffffffffff8111156137d2576137d1612e1b565b5b6137de8d828e01612e2f565b985098505060408b013567ffffffffffffffff81111561380157613800612e1b565b5b61380d8d828e01612e2f565b965096505060608b013567ffffffffffffffff8111156138305761382f612e1b565b5b61383c8d828e01612e2f565b945094505060808b013567ffffffffffffffff81111561385f5761385e612e1b565b5b61386b8d828e01612e2f565b92509250509295989b9194979a5092959850565b600081905092915050565b6000613896838561387f565b93506138a3838584613155565b82840190509392505050565b60006138bc82848661388a565b91508190509392505050565b7f4e487b7100000000000000000000000000000000000000000000000000000000600052602260045260246000fd5b6000600282049050600182168061390f57607f821691505b602082108103613922576139216138c8565b5b50919050565b7f4e487b7100000000000000000000000000000000000000000000000000000000600052601160045260246000fd5b6000613962826131d4565b915061396d836131d4565b925082820390508181111561398557613984613928565b5b92915050565b7f4e487b7100000000000000000000000000000000000000000000000000000000600052603260045260246000fd5b60006139c582612efe565b6139cf818561387f565b93506139df818560208601612f1a565b80840191505092915050565b60006139f782846139ba565b915081905092915050565b6000613a0d826131d4565b91507fffffffffffffffffffffffffffffffffffffffffffffffffffffffffffffffff8203613a3f57613a3e613928565b5b600182019050919050565b60008190508160005260206000209050919050565b60006020601f8301049050919050565b600082821b905092915050565b600060088302613aac7fffffffffffffffffffffffffffffffffffffffffffffffffffffffffffffffff82613a6f565b613ab68683613a6f565b95508019841693508086168417925050509392505050565b6000819050919050565b6000613af3613aee613ae9846131d4565b613ace565b6131d4565b9050919050565b6000819050919050565b613b0d83613ad8565b613b21613b1982613afa565b848454613a7c565b825550505050565b600090565b613b36613b29565b613b41818484613b04565b505050565b5b81811015613b6557613b5a600082613b2e565b600181019050613b47565b5050565b601f821115613baa57613b7b81613a4a565b613b8484613a5f565b81016020851015613b93578190505b613ba7613b9f85613a5f565b830182613b46565b50505b505050565b600082821c905092915050565b6000613bcd60001984600802613baf565b1980831691505092915050565b6000613be68383613bbc565b9150826002028217905092915050565b613bff82612efe565b67ffffffffffffffff811115613c1857613c176130a9565b5b613c2282546138f7565b613c2d828285613b69565b600060209050601f831160018114613c605760008415613c4e578287015190505b613c588582613bda565b865550613cc0565b601f198416613c6e86613a4a565b60005b82811015613c9657848901518255600182019150602085019450602081019050613c71565b86831015613cb35784890151613caf601f891682613bbc565b8355505b6001600288020188555050505b505050505050565b600082905092915050565b613cdd8383613cc8565b67ffffffffffffffff811115613cf657613cf56130a9565b5b613d0082546138f7565b613d0b828285613b69565b6000601f831160018114613d3a5760008415613d28578287013590505b613d328582613bda565b865550613d9a565b601f198416613d4886613a4a565b60005b82811015613d7057848901358255600182019150602085019450602081019050613d4b565b86831015613d8d5784890135613d89601f891682613bbc565b8355505b6001600288020188555050505b5050505050505056fea26469706673582212209ab930cbec9af3df6f435361264e497eb821acc1f3f2730d5de45475594c8d4e64736f6c63430008100033",
  "immutableReferences": {},
  "source": "pragma solidity ^0.8.16;\r\npragma experimental ABIEncoderV2;\r\n\r\ncontract FoodDonation{\r\n    \r\n    struct Donation{\r\n        string donationId;\r\n        string ngoID;\r\n        string userID;\r\n        string publicFridgesID;\r\n        string donationType;\r\n    }\r\n\r\n    struct Ngo{\r\n        string ngoId;\r\n        string name;\r\n        string email;\r\n        uint phoneno;\r\n        string ngoAddress;\r\n    }\r\n\r\n    struct PublicFridges{\r\n        string PublicFridgesId;\r\n        string NgoId;\r\n        string publicFridgeAddress;\r\n    }\r\n\r\n    mapping(string => Ngo) public ngo;\r\n    mapping(string => Donation) public donation;\r\n    mapping(string => string[]) public userDonation;\r\n    mapping(string => string[]) public ngoDonation;\r\n    mapping(uint => string) public donationKey;\r\n    uint totaldonation = 1;\r\n    mapping(string => PublicFridges) publicFridges;\r\n    mapping(uint => string) publicFridgesKey;\r\n    mapping(string => string[]) public ngoFridge;\r\n    uint totalFridge = 1;\r\n\r\n    function addNgo(\r\n        string calldata ngoId, \r\n        string calldata name, \r\n        string calldata email, \r\n        uint phoneno, \r\n        string calldata ngoAddress\r\n    ) external{\r\n        ngo[ngoId] = Ngo(ngoId, name, email, phoneno, ngoAddress);\r\n    }\r\n\r\n    function getNgo(string calldata Id) view external returns(\r\n        string memory ngoId,\r\n        string memory name,\r\n        string memory email,\r\n        uint phoneno,\r\n        string memory ngoAddress\r\n    ){\r\n        Ngo memory x = ngo[Id];\r\n        return(ngoId, x.name, x.email, x.phoneno, x.ngoAddress);\r\n    }\r\n\r\n    function addDonation(\r\n        string calldata donationId,\r\n        string calldata  ngoID,\r\n        string calldata  userID,\r\n        string calldata  publicFridgesID,\r\n        string calldata  donationType\r\n    ) external{\r\n        donation[donationId] = Donation(donationId, ngoID, userID, publicFridgesID, donationType);\r\n        donationKey[totaldonation] = donationId;\r\n        userDonation[userID].push(donationId);\r\n        ngoDonation[ngoID].push(donationId);\r\n        totaldonation++;\r\n    }\r\n\r\n    function getDonation(string calldata x) view external returns(\r\n        string memory donationId,\r\n        string memory  ngoID,\r\n        string memory  userID,\r\n        string memory  publicFridgesID,\r\n        string memory  donationType\r\n    ){\r\n            Donation memory temp = donation[x];\r\n            return(temp.donationId, temp.ngoID, temp.userID, temp.publicFridgesID, temp.donationType);\r\n    }\r\n\r\n   function getDonations() external view returns (Donation[] memory){\r\n      Donation[]  memory _donation = new Donation[](totaldonation-1);\r\n      for (uint i=1;i<totaldonation-1;i++) {\r\n          string memory x = donationKey[i];\r\n          Donation storage member = donation[x];\r\n          _donation[i] = member;\r\n      }\r\n      return _donation;\r\n    }\r\n\r\n    function getUserDonations(string calldata userId) external view returns(Donation[] memory){\r\n        string[] memory userDonationId = userDonation[userId];\r\n        Donation[]  memory _donation = new Donation[](userDonationId.length);\r\n        for (uint i=0;i<userDonationId.length;i++) {\r\n            string memory x = userDonationId[i];\r\n            Donation storage member = donation[x];\r\n            _donation[i] = member;\r\n        }\r\n        return _donation;\r\n    }\r\n\r\n    function getNgoDonations(string calldata ngoId) external view returns(Donation[] memory){\r\n        string[] memory ngoDonationId = ngoDonation[ngoId];\r\n        Donation[]  memory _donation = new Donation[](ngoDonationId.length);\r\n        for (uint i=0;i<ngoDonationId.length;i++) {\r\n            string memory x = ngoDonationId[i];\r\n            Donation storage member = donation[x];\r\n            _donation[i] = member;\r\n        }\r\n        return _donation;\r\n    }\r\n\r\n\r\n    function addFridge(\r\n        string calldata PublicFridgesId, \r\n        string calldata NgoId, \r\n        string calldata publicFridgeAddress\r\n    ) external {\r\n        publicFridges[PublicFridgesId] = PublicFridges(PublicFridgesId, NgoId, publicFridgeAddress);\r\n        publicFridgesKey[totalFridge] = PublicFridgesId;\r\n        ngoFridge[NgoId].push(PublicFridgesId);\r\n        totalFridge++;\r\n    } \r\n\r\n\r\n    function getAllFridge() external view returns (PublicFridges[] memory){\r\n      PublicFridges[]  memory _fridge = new PublicFridges[](totalFridge-1);\r\n      for (uint i=1;i<totalFridge-1;i++) {\r\n          string memory x = publicFridgesKey[i];\r\n          PublicFridges storage member = publicFridges[x];\r\n          _fridge[i] = member;\r\n      }\r\n      return _fridge;\r\n    }\r\n\r\n     function getNgoFridge(string calldata NgoId) external view returns (PublicFridges[] memory){\r\n         string[] memory _fridgeId = ngoFridge[NgoId];\r\n        PublicFridges[]  memory _fridge = new PublicFridges[](_fridgeId.length-1);\r\n        for (uint i=1;i<_fridgeId.length-1;i++) {\r\n            string memory x = _fridgeId[i];\r\n            PublicFridges storage member = publicFridges[x];\r\n            _fridge[i] = member;\r\n        }\r\n        return _fridge;\r\n    }\r\n\r\n}",
  "sourcePath": "D:\\minor final project\\server\\contracts\\FoodDonation.sol",
  "compiler": {
    "name": "solc",
    "version": "0.8.16+commit.07a7930e.Emscripten.clang"
  },
  "schemaVersion": "3.4.10",
  "updatedAt": "2022-10-14T13:28:46.267Z",
  "networkType": "ethereum",
  "devdoc": {
    "kind": "dev",
    "methods": {},
    "version": 1
  },
  "userdoc": {
    "kind": "user",
    "methods": {},
    "version": 1
  }
}