{
  "contractName": "FridgeContract",
  "abi": [
    {
      "inputs": [
        {
          "internalType": "string",
          "name": "",
          "type": "string"
        },
        {
          "internalType": "uint256",
          "name": "",
          "type": "uint256"
        }
      ],
      "name": "ngoFridge",
      "outputs": [
        {
          "internalType": "string",
          "name": "",
          "type": "string"
        }
      ],
      "stateMutability": "view",
      "type": "function"
    },
    {
      "inputs": [
        {
          "internalType": "string",
          "name": "PublicFridgesId",
          "type": "string"
        },
        {
          "internalType": "string",
          "name": "NgoId",
          "type": "string"
        },
        {
          "internalType": "string",
          "name": "publicFridgeAddress",
          "type": "string"
        }
      ],
      "name": "addFridge",
      "outputs": [],
      "stateMutability": "nonpayable",
      "type": "function"
    },
    {
      "inputs": [],
      "name": "getAllFridge",
      "outputs": [
        {
          "components": [
            {
              "internalType": "string",
              "name": "PublicFridgesId",
              "type": "string"
            },
            {
              "internalType": "string",
              "name": "NgoId",
              "type": "string"
            },
            {
              "internalType": "string",
              "name": "publicFridgeAddress",
              "type": "string"
            }
          ],
          "internalType": "struct FridgeContract.PublicFridges[]",
          "name": "",
          "type": "tuple[]"
        }
      ],
      "stateMutability": "view",
      "type": "function"
    },
    {
      "inputs": [
        {
          "internalType": "string",
          "name": "NgoId",
          "type": "string"
        }
      ],
      "name": "getNgoFridge",
      "outputs": [
        {
          "components": [
            {
              "internalType": "string",
              "name": "PublicFridgesId",
              "type": "string"
            },
            {
              "internalType": "string",
              "name": "NgoId",
              "type": "string"
            },
            {
              "internalType": "string",
              "name": "publicFridgeAddress",
              "type": "string"
            }
          ],
          "internalType": "struct FridgeContract.PublicFridges[]",
          "name": "",
          "type": "tuple[]"
        }
      ],
      "stateMutability": "view",
      "type": "function"
    }
  ],
  "bytecode": "0x6080604052600160035534801561001557600080fd5b50611597806100256000396000f3fe608060405234801561001057600080fd5b506004361061004c5760003560e01c80631d0c45dc146100515780636604acf71461008157806369ffa57d146100b1578063b0dcf1cc146100cd575b600080fd5b61006b60048036038101906100669190610b3c565b6100eb565b6040516100789190610d39565b60405180910390f35b61009b60048036038101906100969190610ec1565b6104a3565b6040516100a89190610f67565b60405180910390f35b6100cb60048036038101906100c69190610f89565b610572565b005b6100d561075f565b6040516100e29190610d39565b60405180910390f35b606060006002848460405161010192919061106d565b9081526020016040518091039020805480602002602001604051908101604052809291908181526020016000905b828210156101db57838290600052602060002001805461014e906110b5565b80601f016020809104026020016040519081016040528092919081815260200182805461017a906110b5565b80156101c75780601f1061019c576101008083540402835291602001916101c7565b820191906000526020600020905b8154815290600101906020018083116101aa57829003601f168201915b50505050508152602001906001019061012f565b5050505090506000600182516101f19190611115565b67ffffffffffffffff81111561020a57610209610d60565b5b60405190808252806020026020018201604052801561024357816020015b610230610aa2565b8152602001906001900390816102285790505b5090506000600190505b6001835161025b9190611115565b81101561049757600083828151811061027757610276611149565b5b602002602001015190506000808260405161029291906111a9565b90815260200160405180910390209050806040518060600160405290816000820180546102be906110b5565b80601f01602080910402602001604051908101604052809291908181526020018280546102ea906110b5565b80156103375780601f1061030c57610100808354040283529160200191610337565b820191906000526020600020905b81548152906001019060200180831161031a57829003601f168201915b50505050508152602001600182018054610350906110b5565b80601f016020809104026020016040519081016040528092919081815260200182805461037c906110b5565b80156103c95780601f1061039e576101008083540402835291602001916103c9565b820191906000526020600020905b8154815290600101906020018083116103ac57829003601f168201915b505050505081526020016002820180546103e2906110b5565b80601f016020809104026020016040519081016040528092919081815260200182805461040e906110b5565b801561045b5780601f106104305761010080835404028352916020019161045b565b820191906000526020600020905b81548152906001019060200180831161043e57829003601f168201915b50505050508152505084848151811061047757610476611149565b5b60200260200101819052505050808061048f906111c0565b91505061024d565b50809250505092915050565b60028280516020810182018051848252602083016020850120818352809550505050505081815481106104d557600080fd5b906000526020600020016000915091505080546104f1906110b5565b80601f016020809104026020016040519081016040528092919081815260200182805461051d906110b5565b801561056a5780601f1061053f5761010080835404028352916020019161056a565b820191906000526020600020905b81548152906001019060200180831161054d57829003601f168201915b505050505081565b604051806060016040528087878080601f016020809104026020016040519081016040528093929190818152602001838380828437600081840152601f19601f82011690508083019250505050505050815260200185858080601f016020809104026020016040519081016040528093929190818152602001838380828437600081840152601f19601f82011690508083019250505050505050815260200183838080601f016020809104026020016040519081016040528093929190818152602001838380828437600081840152601f19601f820116905080830192505050505050508152506000878760405161066b92919061106d565b9081526020016040518091039020600082015181600001908161068e91906113b4565b5060208201518160010190816106a491906113b4565b5060408201518160020190816106ba91906113b4565b50905050858560016000600354815260200190815260200160002091826106e2929190611491565b50600284846040516106f592919061106d565b908152602001604051809103902086869091806001815401808255809150506001900390600052602060002001600090919290919290919290919250918261073e929190611491565b5060036000815480929190610752906111c0565b9190505550505050505050565b6060600060016003546107729190611115565b67ffffffffffffffff81111561078b5761078a610d60565b5b6040519080825280602002602001820160405280156107c457816020015b6107b1610aa2565b8152602001906001900390816107a95790505b5090506000600190505b60016003546107dd9190611115565b811015610a9a576000600160008381526020019081526020016000208054610804906110b5565b80601f0160208091040260200160405190810160405280929190818152602001828054610830906110b5565b801561087d5780601f106108525761010080835404028352916020019161087d565b820191906000526020600020905b81548152906001019060200180831161086057829003601f168201915b505050505090506000808260405161089591906111a9565b90815260200160405180910390209050806040518060600160405290816000820180546108c1906110b5565b80601f01602080910402602001604051908101604052809291908181526020018280546108ed906110b5565b801561093a5780601f1061090f5761010080835404028352916020019161093a565b820191906000526020600020905b81548152906001019060200180831161091d57829003601f168201915b50505050508152602001600182018054610953906110b5565b80601f016020809104026020016040519081016040528092919081815260200182805461097f906110b5565b80156109cc5780601f106109a1576101008083540402835291602001916109cc565b820191906000526020600020905b8154815290600101906020018083116109af57829003601f168201915b505050505081526020016002820180546109e5906110b5565b80601f0160208091040260200160405190810160405280929190818152602001828054610a11906110b5565b8015610a5e5780601f10610a3357610100808354040283529160200191610a5e565b820191906000526020600020905b815481529060010190602001808311610a4157829003601f168201915b505050505081525050848481518110610a7a57610a79611149565b5b602002602001018190525050508080610a92906111c0565b9150506107ce565b508091505090565b60405180606001604052806060815260200160608152602001606081525090565b6000604051905090565b600080fd5b600080fd5b600080fd5b600080fd5b600080fd5b60008083601f840112610afc57610afb610ad7565b5b8235905067ffffffffffffffff811115610b1957610b18610adc565b5b602083019150836001820283011115610b3557610b34610ae1565b5b9250929050565b60008060208385031215610b5357610b52610acd565b5b600083013567ffffffffffffffff811115610b7157610b70610ad2565b5b610b7d85828601610ae6565b92509250509250929050565b600081519050919050565b600082825260208201905092915050565b6000819050602082019050919050565b600081519050919050565b600082825260208201905092915050565b60005b83811015610bef578082015181840152602081019050610bd4565b60008484015250505050565b6000601f19601f8301169050919050565b6000610c1782610bb5565b610c218185610bc0565b9350610c31818560208601610bd1565b610c3a81610bfb565b840191505092915050565b60006060830160008301518482036000860152610c628282610c0c565b91505060208301518482036020860152610c7c8282610c0c565b91505060408301518482036040860152610c968282610c0c565b9150508091505092915050565b6000610caf8383610c45565b905092915050565b6000602082019050919050565b6000610ccf82610b89565b610cd98185610b94565b935083602082028501610ceb85610ba5565b8060005b85811015610d275784840389528151610d088582610ca3565b9450610d1383610cb7565b925060208a01995050600181019050610cef565b50829750879550505050505092915050565b60006020820190508181036000830152610d538184610cc4565b905092915050565b600080fd5b7f4e487b7100000000000000000000000000000000000000000000000000000000600052604160045260246000fd5b610d9882610bfb565b810181811067ffffffffffffffff82111715610db757610db6610d60565b5b80604052505050565b6000610dca610ac3565b9050610dd68282610d8f565b919050565b600067ffffffffffffffff821115610df657610df5610d60565b5b610dff82610bfb565b9050602081019050919050565b82818337600083830152505050565b6000610e2e610e2984610ddb565b610dc0565b905082815260208101848484011115610e4a57610e49610d5b565b5b610e55848285610e0c565b509392505050565b600082601f830112610e7257610e71610ad7565b5b8135610e82848260208601610e1b565b91505092915050565b6000819050919050565b610e9e81610e8b565b8114610ea957600080fd5b50565b600081359050610ebb81610e95565b92915050565b60008060408385031215610ed857610ed7610acd565b5b600083013567ffffffffffffffff811115610ef657610ef5610ad2565b5b610f0285828601610e5d565b9250506020610f1385828601610eac565b9150509250929050565b600082825260208201905092915050565b6000610f3982610bb5565b610f438185610f1d565b9350610f53818560208601610bd1565b610f5c81610bfb565b840191505092915050565b60006020820190508181036000830152610f818184610f2e565b905092915050565b60008060008060008060608789031215610fa657610fa5610acd565b5b600087013567ffffffffffffffff811115610fc457610fc3610ad2565b5b610fd089828a01610ae6565b9650965050602087013567ffffffffffffffff811115610ff357610ff2610ad2565b5b610fff89828a01610ae6565b9450945050604087013567ffffffffffffffff81111561102257611021610ad2565b5b61102e89828a01610ae6565b92509250509295509295509295565b600081905092915050565b6000611054838561103d565b9350611061838584610e0c565b82840190509392505050565b600061107a828486611048565b91508190509392505050565b7f4e487b7100000000000000000000000000000000000000000000000000000000600052602260045260246000fd5b600060028204905060018216806110cd57607f821691505b6020821081036110e0576110df611086565b5b50919050565b7f4e487b7100000000000000000000000000000000000000000000000000000000600052601160045260246000fd5b600061112082610e8b565b915061112b83610e8b565b9250828203905081811115611143576111426110e6565b5b92915050565b7f4e487b7100000000000000000000000000000000000000000000000000000000600052603260045260246000fd5b600061118382610bb5565b61118d818561103d565b935061119d818560208601610bd1565b80840191505092915050565b60006111b58284611178565b915081905092915050565b60006111cb82610e8b565b91507fffffffffffffffffffffffffffffffffffffffffffffffffffffffffffffffff82036111fd576111fc6110e6565b5b600182019050919050565b60008190508160005260206000209050919050565b60006020601f8301049050919050565b600082821b905092915050565b60006008830261126a7fffffffffffffffffffffffffffffffffffffffffffffffffffffffffffffffff8261122d565b611274868361122d565b95508019841693508086168417925050509392505050565b6000819050919050565b60006112b16112ac6112a784610e8b565b61128c565b610e8b565b9050919050565b6000819050919050565b6112cb83611296565b6112df6112d7826112b8565b84845461123a565b825550505050565b600090565b6112f46112e7565b6112ff8184846112c2565b505050565b5b81811015611323576113186000826112ec565b600181019050611305565b5050565b601f8211156113685761133981611208565b6113428461121d565b81016020851015611351578190505b61136561135d8561121d565b830182611304565b50505b505050565b600082821c905092915050565b600061138b6000198460080261136d565b1980831691505092915050565b60006113a4838361137a565b9150826002028217905092915050565b6113bd82610bb5565b67ffffffffffffffff8111156113d6576113d5610d60565b5b6113e082546110b5565b6113eb828285611327565b600060209050601f83116001811461141e576000841561140c578287015190505b6114168582611398565b86555061147e565b601f19841661142c86611208565b60005b828110156114545784890151825560018201915060208501945060208101905061142f565b86831015611471578489015161146d601f89168261137a565b8355505b6001600288020188555050505b505050505050565b600082905092915050565b61149b8383611486565b67ffffffffffffffff8111156114b4576114b3610d60565b5b6114be82546110b5565b6114c9828285611327565b6000601f8311600181146114f857600084156114e6578287013590505b6114f08582611398565b865550611558565b601f19841661150686611208565b60005b8281101561152e57848901358255600182019150602085019450602081019050611509565b8683101561154b5784890135611547601f89168261137a565b8355505b6001600288020188555050505b5050505050505056fea26469706673582212209e7bcd1a8f56ada1de45d70980c758e45539bd772badd7520e63dbef2399cc4b64736f6c63430008100033",
  "immutableReferences": {},
  "source": "pragma solidity ^0.8.16;\r\npragma experimental ABIEncoderV2;\r\n\r\ncontract FridgeContract{\r\n\r\n    struct PublicFridges{\r\n        string PublicFridgesId;\r\n        string NgoId;\r\n        string publicFridgeAddress;\r\n    }\r\n\r\n\r\n    mapping(string => PublicFridges) publicFridges;\r\n    mapping(uint => string) publicFridgesKey;\r\n    mapping(string => string[]) public ngoFridge;\r\n    uint totalFridge = 1;\r\n\r\n\r\n    function addFridge(\r\n        string calldata PublicFridgesId, \r\n        string calldata NgoId, \r\n        string calldata publicFridgeAddress\r\n    ) external {\r\n        publicFridges[PublicFridgesId] = PublicFridges(PublicFridgesId, NgoId, publicFridgeAddress);\r\n        publicFridgesKey[totalFridge] = PublicFridgesId;\r\n        ngoFridge[NgoId].push(PublicFridgesId);\r\n        totalFridge++;\r\n    } \r\n\r\n\r\n    function getAllFridge() external view returns (PublicFridges[] memory){\r\n      PublicFridges[]  memory _fridge = new PublicFridges[](totalFridge-1);\r\n      for (uint i=1;i<totalFridge-1;i++) {\r\n          string memory x = publicFridgesKey[i];\r\n          PublicFridges storage member = publicFridges[x];\r\n          _fridge[i] = member;\r\n      }\r\n      return _fridge;\r\n    }\r\n\r\n     function getNgoFridge(string calldata NgoId) external view returns (PublicFridges[] memory){\r\n         string[] memory _fridgeId = ngoFridge[NgoId];\r\n        PublicFridges[]  memory _fridge = new PublicFridges[](_fridgeId.length-1);\r\n        for (uint i=1;i<_fridgeId.length-1;i++) {\r\n            string memory x = _fridgeId[i];\r\n            PublicFridges storage member = publicFridges[x];\r\n            _fridge[i] = member;\r\n        }\r\n        return _fridge;\r\n    }\r\n\r\n}",
  "sourcePath": "D:\\minor final project\\server\\contracts\\contracts_classified\\fridge.sol",
  "compiler": {
    "name": "solc",
    "version": "0.8.16+commit.07a7930e.Emscripten.clang"
  },
  "schemaVersion": "3.4.10",
  "updatedAt": "2022-11-05T04:16:19.324Z",
  "devdoc": {
    "kind": "dev",
    "methods": {},
    "version": 1
  },
  "userdoc": {
    "kind": "user",
    "methods": {},
    "version": 1
  }
}