{
  "contractName": "NgoContract",
  "abi": [
    {
      "inputs": [
        {
          "internalType": "string",
          "name": "",
          "type": "string"
        }
      ],
      "name": "ngo",
      "outputs": [
        {
          "internalType": "string",
          "name": "ngoId",
          "type": "string"
        },
        {
          "internalType": "string",
          "name": "name",
          "type": "string"
        },
        {
          "internalType": "string",
          "name": "email",
          "type": "string"
        },
        {
          "internalType": "uint256",
          "name": "phoneno",
          "type": "uint256"
        },
        {
          "internalType": "string",
          "name": "ngoAddress",
          "type": "string"
        }
      ],
      "stateMutability": "view",
      "type": "function"
    },
    {
      "inputs": [
        {
          "internalType": "string",
          "name": "ngoId",
          "type": "string"
        },
        {
          "internalType": "string",
          "name": "name",
          "type": "string"
        },
        {
          "internalType": "string",
          "name": "email",
          "type": "string"
        },
        {
          "internalType": "uint256",
          "name": "phoneno",
          "type": "uint256"
        },
        {
          "internalType": "string",
          "name": "ngoAddress",
          "type": "string"
        }
      ],
      "name": "addNgo",
      "outputs": [],
      "stateMutability": "nonpayable",
      "type": "function"
    },
    {
      "inputs": [
        {
          "internalType": "string",
          "name": "Id",
          "type": "string"
        }
      ],
      "name": "getNgo",
      "outputs": [
        {
          "internalType": "string",
          "name": "ngoId",
          "type": "string"
        },
        {
          "internalType": "string",
          "name": "name",
          "type": "string"
        },
        {
          "internalType": "string",
          "name": "email",
          "type": "string"
        },
        {
          "internalType": "uint256",
          "name": "phoneno",
          "type": "uint256"
        },
        {
          "internalType": "string",
          "name": "ngoAddress",
          "type": "string"
        }
      ],
      "stateMutability": "view",
      "type": "function"
    }
  ],
  "bytecode": "0x608060405234801561001057600080fd5b50610f8c806100206000396000f3fe608060405234801561001057600080fd5b50600436106100415760003560e01c80638c3a183f14610046578063a901ccee14610062578063ab0371d814610096575b600080fd5b610060600480360381019061005b919061085f565b6100ca565b005b61007c60048036038101906100779190610a9c565b610291565b60405161008d959493929190610b73565b60405180910390f35b6100b060048036038101906100ab9190610be2565b6104fd565b6040516100c1959493929190610b73565b60405180910390f35b6040518060a001604052808a8a8080601f016020809104026020016040519081016040528093929190818152602001838380828437600081840152601f19601f82011690508083019250505050505050815260200188888080601f016020809104026020016040519081016040528093929190818152602001838380828437600081840152601f19601f82011690508083019250505050505050815260200186868080601f016020809104026020016040519081016040528093929190818152602001838380828437600081840152601f19601f82011690508083019250505050505050815260200184815260200183838080601f016020809104026020016040519081016040528093929190818152602001838380828437600081840152601f19601f8201169050808301925050505050505081525060008a8a604051610213929190610c5f565b908152602001604051809103902060008201518160000190816102369190610e84565b50602082015181600101908161024c9190610e84565b5060408201518160020190816102629190610e84565b506060820151816003015560808201518160040190816102829190610e84565b50905050505050505050505050565b6000818051602081018201805184825260208301602085012081835280955050505050506000915090508060000180546102ca90610ca7565b80601f01602080910402602001604051908101604052809291908181526020018280546102f690610ca7565b80156103435780601f1061031857610100808354040283529160200191610343565b820191906000526020600020905b81548152906001019060200180831161032657829003601f168201915b50505050509080600101805461035890610ca7565b80601f016020809104026020016040519081016040528092919081815260200182805461038490610ca7565b80156103d15780601f106103a6576101008083540402835291602001916103d1565b820191906000526020600020905b8154815290600101906020018083116103b457829003601f168201915b5050505050908060020180546103e690610ca7565b80601f016020809104026020016040519081016040528092919081815260200182805461041290610ca7565b801561045f5780601f106104345761010080835404028352916020019161045f565b820191906000526020600020905b81548152906001019060200180831161044257829003601f168201915b50505050509080600301549080600401805461047a90610ca7565b80601f01602080910402602001604051908101604052809291908181526020018280546104a690610ca7565b80156104f35780601f106104c8576101008083540402835291602001916104f3565b820191906000526020600020905b8154815290600101906020018083116104d657829003601f168201915b5050505050905085565b6060806060600060606000808888604051610519929190610c5f565b90815260200160405180910390206040518060a001604052908160008201805461054290610ca7565b80601f016020809104026020016040519081016040528092919081815260200182805461056e90610ca7565b80156105bb5780601f10610590576101008083540402835291602001916105bb565b820191906000526020600020905b81548152906001019060200180831161059e57829003601f168201915b505050505081526020016001820180546105d490610ca7565b80601f016020809104026020016040519081016040528092919081815260200182805461060090610ca7565b801561064d5780601f106106225761010080835404028352916020019161064d565b820191906000526020600020905b81548152906001019060200180831161063057829003601f168201915b5050505050815260200160028201805461066690610ca7565b80601f016020809104026020016040519081016040528092919081815260200182805461069290610ca7565b80156106df5780601f106106b4576101008083540402835291602001916106df565b820191906000526020600020905b8154815290600101906020018083116106c257829003601f168201915b505050505081526020016003820154815260200160048201805461070290610ca7565b80601f016020809104026020016040519081016040528092919081815260200182805461072e90610ca7565b801561077b5780601f106107505761010080835404028352916020019161077b565b820191906000526020600020905b81548152906001019060200180831161075e57829003601f168201915b505050505081525050905085816020015182604001518360600151846080015195509550955095509550509295509295909350565b6000604051905090565b600080fd5b600080fd5b600080fd5b600080fd5b600080fd5b60008083601f8401126107e9576107e86107c4565b5b8235905067ffffffffffffffff811115610806576108056107c9565b5b602083019150836001820283011115610822576108216107ce565b5b9250929050565b6000819050919050565b61083c81610829565b811461084757600080fd5b50565b60008135905061085981610833565b92915050565b600080600080600080600080600060a08a8c031215610881576108806107ba565b5b60008a013567ffffffffffffffff81111561089f5761089e6107bf565b5b6108ab8c828d016107d3565b995099505060208a013567ffffffffffffffff8111156108ce576108cd6107bf565b5b6108da8c828d016107d3565b975097505060408a013567ffffffffffffffff8111156108fd576108fc6107bf565b5b6109098c828d016107d3565b9550955050606061091c8c828d0161084a565b93505060808a013567ffffffffffffffff81111561093d5761093c6107bf565b5b6109498c828d016107d3565b92509250509295985092959850929598565b600080fd5b6000601f19601f8301169050919050565b7f4e487b7100000000000000000000000000000000000000000000000000000000600052604160045260246000fd5b6109a982610960565b810181811067ffffffffffffffff821117156109c8576109c7610971565b5b80604052505050565b60006109db6107b0565b90506109e782826109a0565b919050565b600067ffffffffffffffff821115610a0757610a06610971565b5b610a1082610960565b9050602081019050919050565b82818337600083830152505050565b6000610a3f610a3a846109ec565b6109d1565b905082815260208101848484011115610a5b57610a5a61095b565b5b610a66848285610a1d565b509392505050565b600082601f830112610a8357610a826107c4565b5b8135610a93848260208601610a2c565b91505092915050565b600060208284031215610ab257610ab16107ba565b5b600082013567ffffffffffffffff811115610ad057610acf6107bf565b5b610adc84828501610a6e565b91505092915050565b600081519050919050565b600082825260208201905092915050565b60005b83811015610b1f578082015181840152602081019050610b04565b60008484015250505050565b6000610b3682610ae5565b610b408185610af0565b9350610b50818560208601610b01565b610b5981610960565b840191505092915050565b610b6d81610829565b82525050565b600060a0820190508181036000830152610b8d8188610b2b565b90508181036020830152610ba18187610b2b565b90508181036040830152610bb58186610b2b565b9050610bc46060830185610b64565b8181036080830152610bd68184610b2b565b90509695505050505050565b60008060208385031215610bf957610bf86107ba565b5b600083013567ffffffffffffffff811115610c1757610c166107bf565b5b610c23858286016107d3565b92509250509250929050565b600081905092915050565b6000610c468385610c2f565b9350610c53838584610a1d565b82840190509392505050565b6000610c6c828486610c3a565b91508190509392505050565b7f4e487b7100000000000000000000000000000000000000000000000000000000600052602260045260246000fd5b60006002820490506001821680610cbf57607f821691505b602082108103610cd257610cd1610c78565b5b50919050565b60008190508160005260206000209050919050565b60006020601f8301049050919050565b600082821b905092915050565b600060088302610d3a7fffffffffffffffffffffffffffffffffffffffffffffffffffffffffffffffff82610cfd565b610d448683610cfd565b95508019841693508086168417925050509392505050565b6000819050919050565b6000610d81610d7c610d7784610829565b610d5c565b610829565b9050919050565b6000819050919050565b610d9b83610d66565b610daf610da782610d88565b848454610d0a565b825550505050565b600090565b610dc4610db7565b610dcf818484610d92565b505050565b5b81811015610df357610de8600082610dbc565b600181019050610dd5565b5050565b601f821115610e3857610e0981610cd8565b610e1284610ced565b81016020851015610e21578190505b610e35610e2d85610ced565b830182610dd4565b50505b505050565b600082821c905092915050565b6000610e5b60001984600802610e3d565b1980831691505092915050565b6000610e748383610e4a565b9150826002028217905092915050565b610e8d82610ae5565b67ffffffffffffffff811115610ea657610ea5610971565b5b610eb08254610ca7565b610ebb828285610df7565b600060209050601f831160018114610eee5760008415610edc578287015190505b610ee68582610e68565b865550610f4e565b601f198416610efc86610cd8565b60005b82811015610f2457848901518255600182019150602085019450602081019050610eff565b86831015610f415784890151610f3d601f891682610e4a565b8355505b6001600288020188555050505b50505050505056fea2646970667358221220c4bd72a29c5185e63ed54bd7f6fd899c03db4a0fb58d19db644d9ab1832aa09664736f6c63430008100033",
  "immutableReferences": {},
  "source": "pragma solidity ^0.8.16;\r\npragma experimental ABIEncoderV2;\r\n\r\ncontract NgoContract{\r\n    struct Ngo{\r\n        string ngoId;\r\n        string name;\r\n        string email;\r\n        uint phoneno;\r\n        string ngoAddress;\r\n    }\r\n\r\n  \r\n    mapping(string => Ngo) public ngo;\r\n\r\n    function addNgo(\r\n        string calldata ngoId, \r\n        string calldata name, \r\n        string calldata email, \r\n        uint phoneno, \r\n        string calldata ngoAddress\r\n    ) external{\r\n        ngo[ngoId] = Ngo(ngoId, name, email, phoneno, ngoAddress);\r\n    }\r\n\r\n    function getNgo(string calldata Id) view external returns(\r\n        string memory ngoId,\r\n        string memory name,\r\n        string memory email,\r\n        uint phoneno,\r\n        string memory ngoAddress\r\n    ){\r\n        Ngo memory x = ngo[Id];\r\n        return(ngoId, x.name, x.email, x.phoneno, x.ngoAddress);\r\n    }\r\n\r\n   \r\n\r\n}",
  "sourcePath": "D:\\minor final project\\server\\contracts\\contracts_classified\\ngo.sol",
  "compiler": {
    "name": "solc",
    "version": "0.8.16+commit.07a7930e.Emscripten.clang"
  },
  "schemaVersion": "3.4.10",
  "updatedAt": "2022-11-05T04:16:19.366Z",
  "devdoc": {
    "kind": "dev",
    "methods": {},
    "version": 1
  },
  "userdoc": {
    "kind": "user",
    "methods": {},
    "version": 1
  }
}